:020000040800F2
:10000000E81202207D020008DD3A00086132000893
:10001000D93A0008051100088757000800000000C1
:10002000000000000000000000000000C501000802
:10003000B92100080000000019020008294C00083E
:10004000A1020008A1020008A1020008A102000804
:10005000A1020008A1020008A1020008A1020008F4
:10006000A1020008A1020008A1020008A1020008E4
:10007000A1020008A1020008A1020008A1020008D4
:10008000A1020008A1020008A1020008A1020008C4
:1000900009110008A1020008A1020008E1220008DD
:1000A000A1020008A1020008A1020008A1020008A4
:1000B000A1020008A14C0008A1020008A10200084A
:1000C000A1020008A1020008A1020008A102000884
:1000D000A10200088D5300087D540008A102000809
:1000E000A1020008A1020008A1020008A102000864
:1000F000A1020008A1020008A1020008A102000854
:10010000A1020008A1020008A1020008A102000843
:10011000A1020008A1020008AD4D0008A1020008DC
:10012000A1020008A1020008A1020008A102000823
:10013000A1020008A1020008A1020008A102000813
:1001400049120008A1020008A1020008A10200084B
:10015000811E0008A1020008A1020008A1020008F7
:10016000A1020008A1020008A1020008A1020008E3
:10017000A1020008A1020008A1020008000000007E
:10018000A1020008A1020008D5520008315300085E
:10019000A1020008A1020008A1020008A1020008B3
:1001A0000000000000000000A1020008DFF810D0ED
:1001B00000F04AFB00480047A17E0008AFF3008032
:1001C000E81202202A4B19680868B0E8F04F80F363
:1001D0000988BFF36F8F4FF0000080F311887047DC
:1001E0000000000006480068006880F3088862B6D6
:1001F00061B6BFF34F8FBFF36F8F00DF00BF00BF4B
:1002000008ED00E0DFF80C00016841F470010160C6
:10021000704700BF88ED00E0EFF30980BFF36F8FF8
:10022000134B1A681EF0100F08BF20ED108A20E94A
:10023000F04F106008B44FF0500080F31188BFF306
:100240004F8FBFF36F8F09F0C9FF4FF0000080F3AD
:10025000118808BC19680868B0E8F04F1EF0100F4C
:1002600008BFB0EC108A80F30988BFF36F8F704726
:1002700024000020EFF30580704700000948016862
:1002800041F4700101600848804708480047FEE7D4
:10029000FEE7FEE7FEE7FEE7FEE7FEE7FEE7FEE736
:1002A000FEE7000088ED00E0394C0008AD010008D1
:1002B0009FED1A1AF5EE000A40EE010ABDEEE00AC3
:1002C000F5EEC00A10EE100AF1EE10FA38BF401E2B
:1002D00000EE100A1349F7EE001AB8EEC00A30EE2D
:1002E000C00ADFED0F0A20EE200AFCEEC00A10EE75
:1002F000900AC0F3080000EE900A01EB8000F8EECF
:10030000600A90ED011A70EE600A90ED000A71EE3D
:10031000E01A21EE800A00EE810A704783F9223E3E
:100320000000004498B30008DFED190AB5EEC00ADA
:1003300060EE200ABDEEE01A11EE100AF1EE10FA9E
:1003400038BF401E00EE100A1349F7EE001AB8EE4F
:10035000C00A30EEC00ADFED0F0A60EE200ABCEEE4
:10036000E00A10EE100AC0F3080000EE100A01EBDC
:100370008000B8EE400A90ED011A70EEC00A90EDD0
:10038000000A71EEE01A21EE800A00EE810A704741
:1003900083F9223E0000004498B3000840EA0103BC
:1003A0009B0703D009E008C9121F08C0042AFAD22B
:1003B00003E011F8013B00F8013B521EF9D27047EF
:1003C000D2B201E000F8012B491EFBD27047002297
:1003D000F6E710B513460A4604461946FFF7F0FF44
:1003E000204610BD421C10F8011B0029FBD1801AC9
:1003F000704700F0004230F000400AD0C10D01F516
:100400006071C0F3160042EA0151C208400711436F
:10041000704700200146704730B5041E71F100049A
:1004200004DB4FF00044404264EB0101141E73F101
:10043000000405DB1C464FF00043524263EB04030B
:100440008B4208BF824230BD30B5041E71F10004FA
:1004500004DB4FF00044404264EB0101141E73F1D1
:10046000000405DB1C464FF00043524263EB0403DB
:10047000994208BF904230BD30B50B46014600207E
:100480002022012409E021FA02F59D4205D303FA56
:1004900002F5491B04FA02F52844151EA2F10102D7
:1004A000F1DC30BD2DE9F05F0546002092469B4609
:1004B00088460646814640241BE02846414647467A
:1004C000224600F0E2F953465A46C01A914110D331
:1004D00011461846224600F0C9F92D1A67EB0108AB
:1004E0004F4622460120002100F0C0F917EB000919
:1004F0004E41201EA4F10104DFDC484631462A4665
:100500004346BDE8F09F2DE9FE4F804681EA030097
:10051000C00F0C46009021F0004123F00045B8EBDD
:100520000200A94105D24046214690461C460B4692
:10053000024623F00040104347D0270DC7F30A00BE
:10054000C3F30A510290401A019040286BDAC3F3BA
:10055000130040F4801B0098924620B10023D2EB98
:10056000030A63EB0B0B01985946C0F14002504659
:1005700000F07CF906460D4650465946019A00F0B7
:1005800094F910EB08006141002487EA115284EAD3
:10059000E7731A4340D0009A62B3019A012A4FEAE6
:1005A000075215DC001B61EB02014FF0004202EA2A
:1005B0000752CDE90042001C41F5801132462B461E
:1005C00000F094F903B0BDE8F08F40462146F9E70A
:1005D000001B61EB0201001C41F5801300185B4118
:1005E0002018A2F5001747EB030140EAD570B619B1
:1005F0006D4111E06D084FEA360645EAC0754FEAD5
:100600000752001B61EB0201001C41F580114908F3
:100610004FEA30000019514132462B4603B0BDE885
:10062000F04F00F054B90098012240000023D0EBB5
:10063000020263EBE073009821464FEAE074B8EBE6
:10064000000061EB0401E9E783F000435BE781F020
:10065000004158E72DE9FE4F81EA030404F000440D
:1006600021F0004100944FF0000B23F0004350EACA
:1006700001045ED052EA03045BD0C3F30A54C1F311
:100680000A552C44A4F2F3340194A0FB0254C1F3A4
:10069000130141F48011C3F3130343F4801301FBEE
:1006A000024400FB034E840A970A44EA815447EA55
:1006B0008357A4FB076802958D0A05FB07854FEA5F
:1006C000932C04FB0C542705029D4FEA065847EA79
:1006D0001637B5EB08056EEB070C870E920E47EA4E
:1006E000811742EA8312A7FB0201B6EB0B0164EB10
:1006F00000042B0D43EA0C335E1844EB1C50DA4621
:100700005146E7FB0201C5F313044FEA0B3343EAFA
:1007100014534FEA0432019C43EA0603A4F10C048B
:100720000294009CCDE900B400F0E0F803B0BDE80D
:10073000F08F00200146F9E72DE9F04D81EA03042E
:1007400004F0004B21F0004514464FF0000A23F05E
:10075000004150EA050220D054EA01021DD0C5F341
:100760000A570246C5F31303C1F31300C1F30A5637
:1007700040F4801543F48013A7EB0608101BD646FF
:1007800008F2FD3873EB050002D308F1010801E01F
:1007900092185B41B8F1000F03DA00200146BDE872
:1007A000F08D00204FF48011064684460EE0171BA2
:1007B00073EB050705D3121B63EB050306434CEAF5
:1007C000010C49084FEA300092185B4150EA0107DA
:1007D000EDD152EA030012D082EA040083EA050157
:1007E000084305D0101BAB4106D20122002306E0CE
:1007F00000224FF0004302E06FF0010253101AEBA9
:1008000006004CEB085110EB0A0041EB0B01BDE870
:10081000F04D00F05CB8C1F30A52C1F3130140F28D
:10082000FF3341F480119A4202DA002001467047FA
:1008300040F233439A42A2F2334202DC524200F0C9
:1008400024B800F013B80000064C074D06E0E0683D
:1008500040F0010394E8070098471034AC42F6D307
:10086000FFF7A8FC9CBB0008BCBB0008202A04DBE7
:10087000203A00FA02F1002070479140C2F12003B3
:1008800020FA03F3194390407047202A04DB203AF2
:1008900021FA02F00021704721FA02F3D040C2F1A0
:1008A00020029140084319467047202A06DBCB17E7
:1008B000203A41FA02F043EAE07306E041FA02F31B
:1008C000D040C2F12002914008431946704710B54C
:1008D000141E73F1000408DA401C41F10001921863
:1008E0005B411A4301D120F0010010BD2DE9F04D0C
:1008F00092469B4611B1B1FA81F202E0B0FA80F261
:1009000020329046FFF7B2FF04460F4640EA0A0045
:1009100041EA0B0153465A46084313D0114653EAA5
:10092000010019D0C8F140025046FFF7AEFF05465E
:100930000E46504659464246FFF798FF084305D0F9
:10094000012004E020463946BDE8F08D0020054333
:1009500046EAE0762C4337430A986305E40AA0EBA5
:1009600008000022FD0A44EA47540A3002D500205C
:100970000146E9E7010510196941DDE9084500195B
:100980006941BDE8F04DA2E770B58C1810F8015B25
:1009900015F0070301D110F8013B2A1106D110F818
:1009A000012B03E010F8016B01F8016B5B1EF9D11C
:1009B0002B0705D40023521E0DD401F8013BFAE7A2
:1009C00010F8013BCB1A921C03E013F8015B01F80D
:1009D000015B521EF9D5A142D8D3002070BDCA4395
:1009E0000260704721B1826842F00102826003E038
:1009F000826822F001028260704700000021084AEC
:100A00001168084A1140D0E900231A4383681A4349
:100A1000C3681A431143044AC2F804137047000024
:100A200004230140E030FCFF002001400146C86C77
:100A300080B270470246002013680B400BB10120C2
:100A400000E000207047000030B50246002000237F
:100A50005068104C20400D790C6844EA052420436E
:100A6000506090680C4C2040D1E903542C438D68B1
:100A70002C434D7944EA450420439060D06A20F429
:100A800070000C7D641EE4B2234340EA0350D06240
:100A900030BD0000FFFEFFFCFDF7FFC0F0B50446CF
:100AA0000D4600200021092D11DDE068A5F10A06A0
:100AB00006EB4607072606FA07F18843A5F10A0662
:100AC00006EB460603FA06F10843E0600CE02069F5
:100AD00005EB4507072606FA07F1884305EB4506AF
:100AE00003FA06F108432061072A0FDA606B561EED
:100AF00006EB86071F2606FA07F18843561E06EB0B
:100B0000860605FA06F10843606322E00D2A0FDA33
:100B1000206BD61F06EB86071F2606FA07F18843CF
:100B2000D61F06EB860605FA06F10843206310E09F
:100B3000E06AA2F10D0606EB86071F2606FA07F10A
:100B40008843A2F10D0606EB860605FA06F1084376
:100B5000E062F0BD816841F0804181607047000033
:100B600038B10849096841F40001074AC2F8041382
:100B700006E00449096821F40001034AC2F804139D
:100B800070470000042301400020014010B52DED06
:100B9000028BB0EE408AB0EE480A04F091FFBDEC43
:100BA000028B10BD10B52DED028BB0EE408AF0EE39
:100BB000608AF0EE680AB0EE480A05F017F8BDEC5E
:100BC000028B10BD10B52DED028BB0EE408AB0EE59
:100BD000480AFFF76DFBBDEC028B10BDF0EE400A3A
:100BE000F5EEC00AF1EE10FA02DDB0EE600A7047D1
:100BF000B1EE600AFBE7000018B19FED020A80ED3C
:100C0000000A70470000000018B19FED020A80ED55
:100C1000000A7047DF8FB44170B52DED0C8B84B0A6
:100C200006460C4615469FED990AF0EE408A9FED68
:100C3000970AB0EE409A9FED950AF0EE40BA9FED0C
:100C4000930AF0EE409A9FED910AB0EE40AA0EB1E1
:100C500004B11DB904B0BDEC0C8B70BD8C48FFF71E
:100C6000CBFF8C48FFF7D0FF8A48D0ED000A9FEDFC
:100C70008A1A60EE810AB0EE600A00F039F9F0EEEF
:100C8000408A28EEA80AF0EE408A8248D0ED000A99
:100C9000B0EE001A60EE810A9FED7F1A60EE810AC5
:100CA000B0EE600A00F024F9B0EE409A29EE090A8D
:100CB000B0EE409ADFED790AB7EE000A00EEA80A1E
:100CC000DFED770A00EEC90ADFED760A20EE200A92
:100CD000754880ED000A6E4890ED000ADFED730A5A
:100CE00080EE201AB7EE000A31EE000A20EE000A6C
:100CF0006D48D0ED000A80EE801A6D4880ED001A34
:100D000094ED000AB5EEC00AF1EE10FA0DD194EDA3
:100D1000010AB5EEC00AF1EE10FA06D194ED020A0E
:100D2000B5EEC00AF1EE10FA46D09FED580AB0EECB
:100D3000408A0020019002900390D4ED000A60EEFA
:100D4000A00A94ED011AD4ED011A41EE210A94EDA6
:100D5000021AD4ED021A41EE210AB0EE600A00F048
:100D6000A9F8B0EE408A94ED000A20EE080A8DED55
:100D7000010A94ED010A20EE080A8DED020A94EDB5
:100D8000020A20EE080A8DED030ADDED010AF1EEFC
:100D9000600AB0EE600AFFF7F9FEF0EE409A9DEDB2
:100DA000031AF0EE410A9DED021AB0EE410AFFF778
:100DB000F9FEB0EE40AA07E09FED340AF0EE409A4B
:100DC0009FED320AB0EE40AA95ED000AB5EEC00ADA
:100DD000F1EE10FA0DD195ED010AB5EEC00AF1EE73
:100DE00010FA06D195ED020AB5EEC00AF1EE10FA3E
:100DF0003CD0B0EE690A00F07BF8B0EE408AB0EE6D
:100E0000690AFFF7DFFEB0EE40DAB0EE4A0A00F002
:100E10006FF8F0EE40AAB0EE4A0AFFF7D3FEB0EE4C
:100E200040BA28EE2A0AD5ED010A20EE200AD5EDB7
:100E3000000A0DEE200A68EE0B0A95ED021A00EE8C
:100E4000810AB0EE40CA95ED010A20EE0B0AD5EDFD
:100E5000020A0AEEE00AF0EE40CAF0EE6C0AB0EECA
:100E60004C0AFFF79FFEF0EE40BA03E09FED070A41
:100E7000F0EE40BAB0EE4A1AF0EE690AB0EE6B0A34
:100E8000304605F033FE00BFE4E60000000000003D
:100E9000E8010020EC01002035FA8E3CC1BFAD3BDB
:100EA0009DF8C5362F7C1C41F0010020506CC24AD1
:100EB000F4010020F0EE400AF6EE001A60EEA11AEE
:100EC000B0EE611AB0EE600A10EE100A0749A1EB0D
:100ED000600000EE100A21EE002AF7EE081A42EE3A
:100EE000401A61EE801AB0EE610A7047DF59375F31
:100EF00010B52DED028BB0EE408AB0EE480AFFF738
:100F000013FABDEC028B10BD2DE9F0412DED028BE3
:100F10009AB00546B0EE408A0E4617469846002025
:100F20001790189019901490159016904DB146B1E5
:100F30003FB1B8F1000F04D0B5EEC08AF1EE10FA5F
:100F400005D100201AB0BDEC028BBDE8F08196ED12
:100F5000000A8DED170A96ED010A8DED180A96ED3F
:100F6000020A8DED190A97ED000A8DED140A97ED2E
:100F7000010A8DED150A97ED020A8DED160A17AAE2
:100F800014A9284605F004FC402104A8FFF71FFA25
:100F900000200090019002900390002417A904A85B
:100FA00008F050FD00BF30E004A800EB041090ED05
:100FB000000AD5ED000A20EE200A04A800EB041078
:100FC000D0ED010A95ED011A00EE810A04A800EBAC
:100FD0000410D0ED020A95ED021A00EE810A04A871
:100FE00000EB0410D0ED030A95ED031A00EE810A20
:100FF00020EE080AF0EE000A80EE201A684600EBA8
:10100000840080ED001A601CC4B2042CCCDB0024E8
:1010100010E005EB840090ED000A684600EB8400C8
:10102000D0ED000A30EE200A05EB840080ED000AC6
:10103000601CC4B2042CECDB284607F071FF0120D1
:1010400080E700000E4890ED400AD0ED410AB4EE72
:10105000E00AF1EE10FA04DD90ED410A80ED400A5D
:101060000DE0074890ED400AD0ED420AB4EEE00AE8
:10107000F1EE10FA03D290ED420A80ED400A70477B
:101080000409022038B54FF4407002F065FD4FF4BA
:101090007A7006F035F906F07DFE08F043FC07F0A3
:1010A000C5F806F0A3FA06F043FE04F079FC04F05C
:1010B000F5FB02F067FC08F0F3FB5A214EF66020C6
:1010C00003F086FE002005231A460121009000F05F
:1010D00033F8002005231A460121009000F0CCF8D7
:1010E000002408E0204607F0D5F840F2C52006F0BD
:1010F00065F9601CC4B2042CF4DB07F0EFFF05F0C7
:101100008BFF38BD00BFFEE710B50221084800F094
:1011100063FA58B10221064800F086F9054A002119
:10112000034800F07CFB034800F084FC10BD000085
:1011300000640040100702202DE9F0418AB0044607
:101140000D4616461F46DDF840800121082002F0BA
:1011500057FE0121480602F063FE0121480602F015
:101160006FFE00214FF0007002F06AFE032008902D
:1011700002208DF8240000208DF8260003208DF831
:10118000250001208DF8270008A92D4801F052FA0A
:10119000092200212A4801F095FA09220121284854
:1011A00001F090FA00208DF81A0001208DF81B0044
:1011B00000208DF81C008DF81D008DF81E008DF8A4
:1011C0001F008DF816808DF817408DF818608DF887
:1011D0001950ADF8147005A91A4800F096FA0020CD
:1011E0008DF80E008DF80F0001208DF81000002002
:1011F000ADF80400ADF80600ADF80800ADF80A003F
:10120000ADF80C0001208DF8110001A800F060F984
:10121000012202210B4800F06FFA14208DF8000023
:1012200004208DF8010000208DF8020001208DF8C7
:101230000300684602F054FC00200AB0BDE8F081CB
:10124000000C02400064004010B50221084800F084
:10125000C3F958B10221064800F0E6F8054A00211A
:10126000034800F0DCFA034800F0E4FB10BD000086
:1012700000680040240702202DE9F0418AB00446AE
:101280000D4616461F46DDF840800121022002F07F
:10129000B7FD0121880602F0C3FD0121880602F096
:1012A000CFFD00214FF0806002F0CAFD4FF44050A6
:1012B000089002208DF8240000208DF826000320DD
:1012C0008DF8250001208DF8270008A92D4801F090
:1012D000B1F909220C212B4801F0F4F909220D2162
:1012E000284801F0EFF900208DF81A0001208DF850
:1012F0001B0000208DF81C008DF81D008DF81E00CD
:101300008DF81F008DF816808DF817408DF8186045
:101310008DF81950ADF8147005A91B4800F0F5F9C7
:101320000E208DF80E0000208DF80F0001208DF8A2
:1013300010000020ADF80400ADF80600ADF808007C
:10134000ADF80A00ADF80C0001208DF8110001A8DD
:1013500000F0BEF8012202210B4800F0CDF9402038
:101360008DF8000004208DF8010000208DF80200A7
:1013700001208DF80300684602F0B2FB00200AB09D
:10138000BDE8F081000402400068004010B586B05E
:1013900004464FF40070019000208DF80C008DF889
:1013A0000D0008208DF80E00200A8DF80F008DF832
:1013B000104000218DF811108DF812108DF81310C7
:1013C0008DF814108DF815108DF8161001A902482B
:1013D00000F09DFA06B010BD006800402DE9F04114
:1013E00004460D4616461F4640F2FF100C490860A1
:1013F00000200872487208208872200AC8720846C5
:101400000473290A41738573310AC1730674390A5A
:10141000417487740146034800F079FABDE8F08111
:10142000FC06022000640040B1F5007F3AD00FDCDA
:10143000202928D006DC01291CD004291DD0082928
:1014400040D11DE0402921D0B1F5807F3AD126E07E
:10145000B1F5004F31D006DCB1F5806F25D0B1F584
:10146000006F2FD124E0B1F5803F12D0B1F5003FDD
:1014700028D111E0154A826025E00822C26022E0EE
:101480001022C2601FE0082202611CE010220261EB
:1014900019E00822426016E01022426013E00422A4
:1014A000426010E0042242600DE0042242600AE043
:1014B000002282610422426005E00022826104224F
:1014C000426000E000BF00BF704700000101010062
:1014D00010B50021837A012202FA03F13D4A126815
:1014E00042F001023B4B1A603A4A1C3212688A43AE
:1014F000384B1C331A60027BCAB9364A0C32126868
:101500008A43344B0C331A604288C38842EA03434F
:10151000304A4032847A42F834300288838842EA82
:1015200003432C4A4032847A02EBC4025360027BAC
:10153000012A19D1274A0C3212680A43254B0C3371
:101540001A604288038842EA0343224A4032847A7E
:1015500042F83430C288838842EA03431D4A40324D
:10156000847A02EBC4025360C27A3AB9194A121D56
:1015700012688A43174B1B1D1A6006E0154A121D9C
:1015800012680A43134B1B1D1A60028932B9114AB3
:10159000143212688A430F4B14331A600289012AED
:1015A00006D10C4A143212680A430A4B14331A60EB
:1015B000427B012A06D1074A1C3212680A43054BB6
:1015C0001C331A60034A126822F00102014B1A60B0
:1015D00010BD00000066004070B504460D460026B0
:1015E00060692840002871D0B5F5807F5CD010DCA0
:1015F000082D35D006DC012D20D0022D24D0042D5D
:1016000072D127E0102D31D0202D35D0402D6BD157
:1016100038E0B5F5004F60D009DCB5F5007F49D062
:10162000B5F5806F4CD0B5F5006F5DD14FE0B5F5E5
:10163000803F2DD0B5F5003F56D12FE0A0682D4951
:1016400000F014FC064651E0E068032100F00EFCB7
:1016500006464BE0E068082100F008FC064645E03D
:10166000E068102100F002FC06463FE020690321FB
:1016700000F0FCFB064639E02069082100F0F6FB8B
:10168000064633E02069102100F0F0FB06462DE00D
:101690006068082100F0EAFB064627E06068102138
:1016A00000F0E4FB064621E0A069012100F0DEFB2A
:1016B00006461BE0A069022100F0D8FB064615E0B3
:1016C000A069042100F0D2FB06460FE00FE0A069FC
:1016D000702100F0CBFB064608E06068042100F0B2
:1016E000C5FB064602E0FFE7002600BF00E000263B
:1016F000304670BD010101001AB143690B434361DB
:1017000002E043698B434361704730B502460020D5
:101710000023146824F002041460146844F00104E7
:10172000146000E05B1C546804F001041CB94FF61F
:10173000FF74A342F6D1546804F001040CB90020F0
:101740006CE08C79012C04D1146844F0800414609E
:1017500003E0146824F080041460CC79012C04D1D7
:10176000146844F04004146003E0146824F040045A
:1017700014600C7A012C04D1146844F02004146025
:1017800003E0146824F0200414604C7A012C04D186
:10179000146844F01004146003E0146824F010048A
:1017A00014608C7A012C04D1146844F0080414608D
:1017B00003E0146824F008041460CC7A012C04D1EE
:1017C000146844F00404146003E0146824F0040472
:1017D00014608C78A407CD7844EA05640D7944EA56
:1017E00005444D7944EA05540D886D1E2C43D4619F
:1017F000146824F001041460002300E05B1C5468AA
:1018000004F001041CB14FF6FF74A342F6D15468F2
:1018100004F001040CB1002000E0012030BD10B53F
:1018200000F5D87303EB01131B6803F00403137274
:10183000137A53B900F5D87303EB01131B6840F218
:10184000FF7404EA5353136009E000F5D87303EB07
:1018500001131B686FF0604404EAD303536000F582
:10186000D87303EB01131B6803F00203537200F5F6
:10187000D87303EB01135B6803F00F03937200F559
:10188000D87303EB01135B681B0AD37400F5D8739C
:1018900003EB01139B68D37200F5D87303EB0113BC
:1018A0009B681C0A147300F5D87303EB01139B6843
:1018B0001C0C547300F5D87303EB01139B681B0ECB
:1018C000937300F5D87303EB0113DB68D37300F552
:1018D000D87303EB0113DB681C0A147400F5D8738A
:1018E00003EB0113DB681C0C547400F5D87303EB95
:1018F0000113DB681B0E937421B9C36843F0200306
:10190000C36003E0036943F02003036110BD10B519
:1019100002460020936803F08063B3F1806F00D12A
:1019200010E0936803F00063B3F1006F01D1012070
:1019300008E0936803F08053B3F1805F01D1022087
:1019400000E00420042874D002F5C07303EB0013F8
:101950001B6803F0010402F5C07303EB00131C6065
:101960000B7A7BB94B7A0C8843EA445302F5C07476
:1019700004EB00142468234302F5C07404EB001444
:10198000236010E00B7A4C6843EAC4034C7A23438B
:1019900002F5C07404EB00142468234302F5C074FC
:1019A00004EB001423608B7A03F00F038B7202F5B3
:1019B000C07303EB00135B6823F00F0402F5C073E0
:1019C00003EB00135C6002F5C07303EB00135B686C
:1019D0008C7A234302F5C07404EB001463608B7BA4
:1019E0001C064B7B44EA03440B7B44EA0323CC7A7A
:1019F000234302F5C07404EB0014A3608B7C1C0627
:101A00004B7C44EA03440B7C44EA0323CC7B234312
:101A100002F5C07404EB0014E36002F5C07303EB3D
:101A200000131B6843F0010402F5C07303EB0013BD
:101A30001C6010BD10B504462068A0F201200728E4
:101A40007ED2DFE800F061626364042342005548FF
:101A5000008800B253490881207BE17A40EA0120E6
:101A600050490880A17B607B41EA002000B24D49CB
:101A70008880217CE07B41EA002000B2494948800F
:101A8000607C8871012000F099FB88E0464800885E
:101A900000B245490881207BE17A40EA01204249B1
:101AA0000880A17B607B41EA002000B23E4988802B
:101AB000217CE07B41EA002000B23B494880607C09
:101AC0008871022000F07AFB69E03848008800B293
:101AD00036490881207BE17A40EA012033490880B9
:101AE000A17B607B41EA002000B230494880217C24
:101AF000E07B41EA002000B22C498880607C88713C
:101B0000032000F05BFB4AE000BF00BF00BF20786D
:101B1000401E274908700846007800EB80002549E0
:101B200031F8100000B22249097801EB8101214A05
:101B300002EB41010881207BE17A40EA012000E0CC
:101B40002CE01B49097801EB810122F81100A17BEF
:101B5000607B41EA002000B21549097801EB810160
:101B600002EB41014880217CE07B41EA002000B289
:101B70000F49097801EB810102EB41018880607C0B
:101B80000B49097801EB810102EB41018871084999
:101B90000978091DC8B200F011FB00E000BF00BFCA
:101BA00010BD0000B4060220BE060220C8060220B6
:101BB00004010020D206022010B500242CB19FEDB4
:101BC000040A044880ED1E0A01E005F025FB10BD63
:101BD000000000003807022010B51548007920B138
:101BE000012805D0022809D105E000F0BDF805E084
:101BF000FFF7E2FF02E000F061F800BF00BF0C4811
:101C000090ED1E1AF0EE410A90ED1D1AB0EE410A59
:101C10001C3001F0CDFF0648418B018390ED0F0A87
:101C2000BDEEC00A10EE100A01B20148418310BD9A
:101C30003807022010B502F0BFFD00F021F80D4971
:101C40009FED0D0A0D4805F00BFC05F063FE0B49F6
:101C500064390860B1EE000A084680ED1F0AB9EE4B
:101C6000000A80ED200A00200871022081F884001B
:101C700010BD0000E4B200086F12033B9C07022075
:101C80000EB50A4A07CA8DE80700002005F07EFD60
:101C900007498860DFED070A9FED070A6A460021C1
:101CA00003481C3002F07CF80EBD0000E8B20008CA
:101CB000380702200000FA4400007A4610B52DEDE6
:101CC000028B24480068B0F900000A2806DC21488D
:101CD0000068B0F9000010F10A0F04DA1D4800682E
:101CE000B0F9004000E0002400EE104AB8EEC00A4F
:101CF000DFED190A20EE208AB0EE480A154864305C
:101D000005F084FB9FED150AB4EEC08AF1EE10FADF
:101D10000BD29FED130AB4EEC08AF1EE10FA04DD87
:101D20009FED100A0B4880ED1A0A0A48D0ED1F1AE1
:101D3000B0EE611AD0ED201AF0EE610AD0ED1A1A59
:101D4000B0EE610A05F016FC024880ED1E0ABDECFB
:101D5000028B10BD380702200AD7A33BCCCC4C3DE8
:101D6000CCCC4CBD000000009FED050A054880ED7D
:101D70001D0A9FED030A80ED1E0A00214183704772
:101D8000000000003807022010B50848007918B993
:101D90000020FFF7FBFA08E0042007F00DFE20B951
:101DA0000249B1F91A00FFF7F1FA10BD3807022015
:101DB00012488068B0F9020000EE100AB8EEC00ABE
:101DC000DFED0F0A20EE200A0C4880ED040A90EDAA
:101DD000120ADFED0C0A20EE200A80ED030A80686B
:101DE000B0F9020000EE100AB8EEC00ADFED040AF6
:101DF00020EE200A014880ED1D0A704738070220B6
:101E00000A01DA390000FA4310B5002007F0D4FDCA
:101E100030B115480079144948710120087122E059
:101E200011480068807A032806D10F4800790E49CE
:101E300048710220087116E00B480068807A01287A
:101E400006D10948007908494871012008710AE063
:101E500005480068807A022805D1034800790249C4
:101E600048710020087110BD38070220024600208A
:101E700002EA01030BB1012000E0002070470000DE
:101E800010B51049104800F029F9C8B10D490E48A5
:101E900000F022F806F02EF808F028FE01280FD0F6
:101EA0000A490B48006808F023F80848006838B170
:101EB0004FF0805007490860BFF34F8FBFF36F8F1B
:101EC00010BD00000008002088640240940100203A
:101ED0001801002004ED00E00246094B9A4201D2AD
:101EE000084801E00648103801F000531BB1064BCA
:101EF0000B40C36002E0044B0B408360704700005E
:101F000010640240006002407D0F7D0F21B1026825
:101F100042F00102026003E0026822F00102026066
:101F200070470000016821F001010160002101609B
:101F300041608160C1600161212141614A4988425B
:101F400004D13D21484A103A91608CE0464918314D
:101F5000884205D14FF47461434A103A916082E09F
:101F600041493031884205D14FF474113E4A103A4C
:101F7000916078E03C494831884205D14FF0746166
:101F8000394A103A91606EE037496031884204D195
:101F90003649354A103AD16065E033497831884294
:101FA00004D13349304A103AD1605CE02E49903177
:101FB000884204D12F492C4A103AD16053E02A4973
:101FC000A831884205D14FF03D51274A103AD160DF
:101FD00049E02949884204D13D21274A083A116045
:101FE00041E025491831884205D14FF47461224AF5
:101FF000083A116037E020493031884205D14FF46A
:1020000074111D4A083A11602DE01B49483188427D
:1020100005D14FF07461184A083A116023E016495F
:102020006031884204D11149134A121F11601AE02D
:1020300011497831884204D10D490F4A121F1160AD
:1020400011E00D499031884204D10A490A4A121F11
:10205000116008E00849A831884204D14FF03D5191
:10206000054A121F11607047106002403D000020B9
:10207000400F002000003D201064024021B10268A2
:1020800042F48022026003E0026822F480220260AF
:10209000704722B1036843F40023036003E0036840
:1020A00023F40023036001617047014600200A68A1
:1020B00002F001020AB1012000E000207047014651
:1020C000486880B27047014600200A6802F4002286
:1020D0000AB1012000E000207047000030B503463F
:1020E0000A46002000240B4DAB4201D20A4901E010
:1020F0000849103902F000550DB14C6800E00C6839
:10210000064D2C4004EA02050DB1012000E000203C
:1021100030BD000010640240006002407D0F7D0F62
:1021200010B501F080034BB122B1436943F0800345
:10213000436103E0436923F08003436180290BD0AE
:102140002AB1036801F01E042343036004E003681E
:1021500001F01E04A343036010BD000010B500226F
:102160000268134B1A40CC680B6823434C69234325
:102170008C692343CC6923430C6A23434C6A234371
:102180008C6A23434C6B23438C6B23431A430260BA
:10219000426922F00702D1E90B3423431A4342611A
:1021A0000B6943604B6883608B68C36010BD00009F
:1021B0003F801CF0416070477047000010B5044636
:1021C00004EBC400454901EB8000006804EBC40146
:1021D000424A02EB8101486008F098FC04EBC4011C
:1021E0003E4A02EB8101086004EBC400114601EB9A
:1021F0008000C07CC0F38010B0B104EBC40001EBE0
:102200008000C07C20F0400004EBC40102EB81019F
:10221000C87404EBC400114601EB8000006804EBB5
:10222000C40102EB8101C86004EBC4002B4901EB3F
:102230008000806990B304EBC401284A02EB81015D
:102240008869804758B304EBC400244901EB80003F
:10225000C07C20F02000203004EBC4011F4A02EBB8
:102260008101C87404EBC400114601EB8000C07CFE
:1022700020F08000803004EBC40102EB8101C874BF
:1022800004EBC400114601EB8000006A28B304EBA4
:10229000C40102EB8101086A80471EE00FE0FFE7FE
:1022A00004EBC4000D4901EB8000C07C20F08000ED
:1022B00004EBC401094A02EB8101C8740DE004EB90
:1022C000C400064901EB8000C07C20F0800004EBD4
:1022D000C401024A02EB8101C87410BDC00702208C
:1022E00010B54FF4807000F011F840B14FF48070D9
:1022F00000F006F805F006FE172002F045F910BDC3
:102300000149086070470000143C0140014600206C
:10231000034A12680A400AB1012000E00020704719
:10232000143C0140002123498279002A3AD00A4610
:10233000126803689A430B461A600A1D1268036804
:102340009A430B1D1A60027911440A6803681A4304
:102350000A60184A0832126803689A43154B08331A
:102360001A601A1D126803689A43124B0C331A60E4
:102370004279102A0ED11A1F126803681A430D4BB6
:1023800008331A601A1D126803681A43094B0C338C
:102390001A600DE00749427911440A6803681A433C
:1023A0000A6005E0027911440A6803689A430A60EA
:1023B00070470000003C0140014908607047000080
:1023C0000C3C024070B504460A460026092502B9B5
:1023D00009E0012A01D1160205E0022A01D1160204
:1023E00001E04FF4407600F09FF80546092D28D112
:1023F0001548006820F440701349086008460068DA
:10240000304308600846006820F0F800086008467D
:10241000006844F0020108430B4908600846006860
:1024200040F48030086000F07FF8054606480068F8
:1024300020F00200044908600846006820F0F80017
:102440000860284670BD0000103C02400920134976
:10245000096801F48031B1F5803F01D101201CE011
:102460000E49096801F0100109B1062015E00B4979
:10247000096801F4807109B102200EE0074909687A
:1024800001F0E00109B1072007E00449096801F003
:10249000020109B1082000E0092070470C3C02400D
:1024A0000348006840F000400149086070470000A0
:1024B000103C024030B502460C46092500F034F8C5
:1024C0000546092D19D10E48006820F440700C49CA
:1024D00008600846006840F400700860084600681C
:1024E00040F001000860146000F01EF80546044842
:1024F000006820F0010002490860284630BD000055
:10250000103C02400548006800F0004028B1044833
:1025100002490C390860034808607047103C0240CB
:1025200023016745AB89EFCD08B509200090FFF77F
:102530008DFF009002E0FFF789FF00909DF80000FA
:102540000128F8D09DF8000008BD0000C92007F060
:1025500021FC00F02BFC06F09BFF04E0012007F0BB
:1025600019FC00F0C9FD012007F026FA0028F5D17A
:10257000022007F021FA0028F0D1032007F01CFA0E
:102580000028EBD10EE000F045FE00F0B5FD00F0B4
:1025900047FB06F077FE0449088000F07FFD01202C
:1025A00007F0F8FBEFE700001401002000B585B04C
:1025B0000121022001F024FC0121880301F050FCDC
:1025C0000821012002F0D8F84FF48070009000201C
:1025D0008DF8040001208DF8060000208DF807001A
:1025E00003208DF805006946114800F023F84FF4E8
:1025F0008070029000208DF80C0008208DF80D00EE
:1026000001208DF80E0002A8FFF78CFE17208DF830
:10261000100005208DF8110000208DF81200012017
:102620008DF8130004A801F05BFA05B000BD0000AE
:1026300000040240F0B50A4600210023002400BF38
:102640003DE0012505FA01F3156805EA03049C4203
:1026500034D105684F000326BE40B54305601579A7
:102660004E00B5400668354305601579012D02D04E
:102670001579022D16D185684F000326BE40B5435B
:10268000856055794E00B54086683543856045685C
:1026900001268E40B5434560456896798E40B6B2B6
:1026A00035434560C5684F000326BE40B543C5604D
:1026B000D5794E00B540C6683543C560491C102920
:1026C000BFD3F0BDF0B5002300244D07ED0E02FA94
:1026D00005F3CE1000F1200555F826504E07F70EF1
:1026E0000F26BE40B543CF1000F1200646F8275014
:1026F000CE1000F1200555F8265045EA0304CE100F
:1027000000F1200545F82640F0BD41837047018364
:1027100070470000014600205C4A914203D2B1F1AB
:10272000006F00D3B0E05A4A914204D2574A914216
:1027300001D30820A8E0574A914204D2544A91425A
:1027400001D31020A0E0544A914204D2514A914250
:1027500001D3182098E0514A914204D24E4A914246
:1027600001D3202090E04E4A914204D24B4A91423C
:1027700001D3282088E04B4A914204D2484A914232
:1027800001D3302080E0484A914204D2454A914228
:1027900001D3382078E0454A914204D2424A91421E
:1027A00001D3402070E0424A914204D23F4A914214
:1027B00001D3482068E03F4A914204D23C4A91420A
:1027C00001D3502060E0B1F1016F04D2394A914247
:1027D00001D3582058E0384A914204D2B1F1016F38
:1027E00001D3802050E0354A914204D2324A9142CE
:1027F00001D3882048E0324A914204D22F4A9142C4
:1028000001D3902040E02F4A914204D22C4A9142B9
:1028100001D3982038E02C4A914204D2294A9142AF
:1028200001D3A02030E0294A914204D2264A9142A5
:1028300001D3A82028E0264A914204D2234A91429B
:1028400001D3B02020E0234A914204D2204A914291
:1028500001D3B82018E0204A914204D21D4A914287
:1028600001D3C02010E01D4A914204D21A4A91427D
:1028700001D3C82008E01A4A914204D2174A914273
:1028800001D3D02000E0D8207047000000400008AD
:102890000080000800C000080000010800000208D5
:1028A00000000408000006080000080800000A08EC
:1028B00000000C0800000E080040100800801008FE
:1028C00000C01008000011080000120800001408E1
:1028D000000016080000180800001A0800001C0874
:1028E00000001E0830B5034613B94FF6FF7030BD27
:1028F00009E013F8014B82EA0400C0B2054D35F837
:10290000100080EA2222081EA1F10101F1D1104637
:10291000EDE70000D4B0000830B5034605E013F839
:10292000010B80EA02040448025D081EA1F10105C2
:10293000A9B2F4D1104630BDD3AF00080146002043
:102940005D4A914204D2B1F1006F01D31046B2E06A
:102950005A4A914204D2584A914201D35748AAE0B8
:10296000574A914204D2554A914201D35448A2E0B9
:10297000544A914204D2524A914201D351489AE0BA
:10298000514A914204D24F4A914201D34E4892E0BB
:102990004E4A914204D24C4A914201D34B488AE0BC
:1029A0004B4A914204D2494A914201D3484882E0BD
:1029B000484A914204D2464A914201D345487AE0BE
:1029C000454A914204D2434A914201D3424872E0BF
:1029D000424A914204D2404A914201D33F486AE0C0
:1029E0003F4A914204D23D4A914201D33C4862E0C1
:1029F000B1F1016F05D23A4A914202D34FF0016022
:102A000059E0384A914204D2B1F1016F01D3104626
:102A100051E0354A914204D2324A914201D33248C0
:102A200049E0324A914204D22F4A914201D32F48C1
:102A300041E02F4A914204D22C4A914201D32C48C2
:102A400039E02C4A914204D2294A914201D32948C3
:102A500031E0294A914204D2264A914201D32648C4
:102A600029E0264A914204D2234A914201D32348C5
:102A700021E0234A914204D2204A914201D32048C6
:102A800019E0204A914204D21D4A914201D31D48C7
:102A900011E01D4A914204D21A4A914201D31A48C8
:102AA00009E01A4A914204D2174A914201D31748C9
:102AB00001E04FF00260704700400008008000080D
:102AC00000C000080000010800000208000004081F
:102AD000000006080000080800000A0800000C08B2
:102AE00000000E08004010080080100800C0100808
:102AF0000000110800001208000014080000160869
:102B00000000180800001A0800001C0800001E0839
:102B100070B504460D460026C6B137484068806847
:102B200000EE100ADFED350A20EE200A85ED000ADE
:102B300031484068406800EE100ADFED310A20EEAF
:102B4000200A84ED000A02F091FF53E02A4890ED3C
:102B5000400ADFED2C0A30EE200AD0ED410AB4EE37
:102B6000E00AF1EE10FA0CDC90ED400ADFED250AE8
:102B700030EE600AD0ED420AB4EEE00AF1EE10FA4F
:102B800004D221480078C0431F4908701A4890EDCC
:102B9000860ADFED1E0A30EE200AD0ED870AB4EE79
:102BA000E00AF1EE10FA0CDC90ED860ADFED170A70
:102BB00030EE600AD0ED880AB4EEE00AF1EE10FAC9
:102BC00004D213480078C043114908700E480078B9
:102BD00010B19FED0C0A01E09FED0E0A84ED000A92
:102BE0000B48007810B19FED090A01E09FED0A0A39
:102BF00085ED000A70BD0000040902205839B4BBFD
:102C0000295C8FBD6F12833A1601002017B7513A25
:102C1000170100206F1283BA17B751BA704700002E
:102C20001CB59FED5C0A8DED010A9FED5A0A8DEDF2
:102C3000000A5948007A40B1012809D002280CD076
:102C400003280FD1FFF7EAFF1CBD00F0F5F909E0FA
:102C500001A96846FFF75CFF04E001A9684600F09F
:102C6000A9F900BF00BF4C4890F83E02002863D18C
:102C7000494890ED3F0ADFED490AB4EEE00AF1EE73
:102C800010FA08DC90ED3F0ADFED450AB4EEE00AE9
:102C9000F1EE10FA13D2404890ED3F0AB5EEC00AAB
:102CA000F1EE10FA02D29FED3F0A01E09FED3E0ADD
:102CB0008DED000A9FED370A8DED010A2AE03648B6
:102CC00090ED850ADFED350AB4EEE00AF1EE10FA78
:102CD00008DC90ED850ADFED320AB4EEE00AF1EE91
:102CE00010FA13D29FED2B0A8DED000A2A4890EDC1
:102CF000850AB5EEC00AF1EE10FA02D29FED290A5C
:102D000001E09FED290A8DED010A03E0012022492F
:102D100081F83E02204890ED400ADDED000A30EED9
:102D2000200A80ED400A90ED860ADDED010A30EEC2
:102D3000200A80ED860A12E0174890ED400ADDED8A
:102D4000000A30EE200A80ED400A90ED860ADDEDA3
:102D5000010A30EE200A80ED860AFEF773F90E496B
:102D6000087A04F009FE0C4890ED8B0ABDEEC00A0B
:102D700010EE100A01B20848A0F8361290ED450A8C
:102D8000BDEEC00A10EE100A01B20348A0F81E11F1
:102D900000BF59E70000000004090220CDCCCC3D63
:102DA000CDCCCCBD17B7513A17B751BA08B500F022
:102DB00099F84349B7EE000A424804F051FB4249F2
:102DC000B7EE000A414804F04BFB04F0A3FD3D4977
:102DD0001039086004F01CFD3A491039C1F824018B
:102DE00004F0E8FC37491039C8600846C06801891A
:102DF00034481038A0F81811C068008801B2314872
:102E00001038A0F81A11D0F8240101892D48103883
:102E1000A0F83012D0F82401008801B229481038F7
:102E2000A0F8321241F27070264A103A0090D2682F
:102E30001188244A103AD268128990B2234B083B79
:102E400040F6882206F0F2F81E48103880ED400A5D
:102E500080ED3F0A4FF47A601A4A103A0090D2F897
:102E600024211188174A103AD2F82421128990B2ED
:102E7000174B40F28F2206F0D9F81248103880ED37
:102E8000860A80ED850A00200E491039A1F83C021F
:102E900004F078FC0B49103948609FED0E0A084693
:102EA00080ED870A9FED0C0A80ED880A9FED0B0AE2
:102EB00080ED410A9FED0A0A80ED420A08BD00003C
:102EC000F4B2000814090220F8B200082C0A02200B
:102ED0003C0B02209FEED13F85EBD1BFA3EB633FBC
:102EE0009DE906BF00B593B02C4A07CA10AB07C3D3
:102EF0002A4A0C3207CA0DAB07C3284A183207CA40
:102F00000AAB07C3254A243207CA07AB07C3234AC3
:102F1000303207CA04AB07C3204A3C3207CA01ABB0
:102F200007C3DFED1F0A9FED1F0A10AA00211E48EC
:102F300000F036FFDFED1D0AB2EE040A0AAA0021F6
:102F40001948483000F02CFFDFED180AB2EE040AF1
:102F500004AA00211448903000F022FFDFED100A8F
:102F60009FED100A0DAA0021114800F019FFDFEDB6
:102F70000F0AB2EE040A07AA00210D48483000F0FB
:102F80000FFFDFED0A0AB2EE040A01AA002106488B
:102F9000883800F005FF13B000BD0000FCB2000847
:102FA00000409C450060EA463C0A02200000000008
:102FB00024090220002200EE902A00EE102A1B4A6B
:102FC0001268B2F904200A2A06DC184A1268B2F91B
:102FD000042012F10A0F05DA144A1268B2F904202B
:102FE00000EE902A114A1268B2F906200A2A06DC7D
:102FF0000E4A1268B2F9062012F10A0F05DA0B4ADE
:103000001268B2F9062000EE102AB8EEE01ADFEDE1
:10301000081A21EE211A81ED001AB8EEC01ADFED70
:10302000051A21EE211A80ED001A704704090220CA
:103030009C5349369C5349B69FED160A164880EDBD
:10304000440A90ED3F0A80ED400AB0F81A11A0F84A
:1030500018119FED100A80ED450A0021A0F81E11FD
:103060009FED0C0A80ED8A0A90ED850A80ED860AB4
:10307000B0F83212A0F830129FED060A80ED8B0AEC
:103080000021A0F836120020034981F83E02A1F881
:103090003C027047000000000409022010B51348EC
:1030A000B0F83602124908801048B0F81E011149E4
:1030B0000880012006F080FC38B1022006F07CFC7C
:1030C00018B1032006F078FC78B90848007A30B9C6
:1030D00000231A4619461846FEF780F905E000233A
:1030E0001A4619461846FEF779F910BD0409022060
:1030F000100100201201002038B504F053FB0446F3
:1031000004F054FB05463E4890ED3F0A80ED3E0A30
:1031100090ED850A80ED840AC068008801B23848C5
:10312000A0F81A11D0F82401008801B23448A0F8A0
:10313000321241F27070324A0090B2F81A2191B204
:103140002F4AB2F8182190B22E4B40F6882205F093
:103150006DFF2B4880ED3F0A4FF47A60284A0090BB
:10316000B2F8322291B2264AB2F8302290B2264BFF
:1031700040F28F2205F05AFF2148B0F93C0240008E
:1031800000EE900AF8EEE00A9FED201A00EE810AA8
:103190001B4880ED850AB0F81A11A0F81811B0F894
:1031A0003212A0F8301200F50571081F03F0D4FDAB
:1031B0001348C068B0F9020000EE100AB8EEC00A69
:1031C000DFED130A20EE200A0D4880ED430AD0F807
:1031D0002401B0F9020000EE100AB8EEC00ADFEDDB
:1031E0000C0A20EE200A064880ED890AB0F8361253
:1031F000A0F83412B0F81E11A0F81C1138BD000060
:1032000004090220240A02203C0B0220DB0F494063
:10321000A251513A10B5002006F0CEFB18B10120A2
:103220000E49087218E00D480068C07A032803D1DF
:1032300002200A4908720FE008480068C07A012895
:1032400002D10649087207E004480068C07A0228E3
:1032500002D100200149087210BD000004090220BB
:1032600000BFFEE7F0B50546059C00207FE093ED2A
:10327000050A00EB4006404F07EB8606D6ED000A34
:1032800020EE200AD3ED060A00EB400607EB860687
:1032900096ED011A00EE810AD3ED070A00EB400615
:1032A00007EB860696ED021A00EE810A334E06EB16
:1032B0008006D6ED000A30EE200A05EB800686ED8A
:1032C000000A93ED010A00EB40062D4F07EB86063E
:1032D000D6ED000A20EE200AD3ED020A00EB4006EC
:1032E00007EB860696ED011A00EE810AD3ED030A7C
:1032F00000EB400607EB860696ED021A00EE810A07
:10330000204E06EB8006D6ED000A30EE200A01EBD7
:10331000800686ED000A94ED010A00EB40061A4F84
:1033200007EB8606D6ED000A20EE200AD4ED020A4D
:1033300000EB400607EB860696ED011A00EE810AC7
:10334000D4ED030A00EB400607EB860696ED021A61
:1033500000EE810A0D4E06EB8006D6ED000A30EE37
:10336000200A02EB800686ED000A461CF0B2032814
:10337000FFF67DAFF0BD000020010020880B022089
:1033800044010020940B022068010020B00B0220B1
:1033900010B52DED028BB0EE408A2748007838B387
:1033A00004F0AEFA00EE100AB8EEC00AF0EE408A61
:1033B000F0EE680AB0EE480A204800F0F9FB1F481A
:1033C00090ED080AB5EEC00AF1EE10FA03D29FEDB7
:1033D0001C0A80ED080A194890ED080ABCEEC00AE4
:1033E00010EE100A84B22146164801F02CFF20E0AE
:1033F00004F086FA00EE100AB8EEC00AB4EEC80A6D
:10340000F1EE10FA10D210480078401C0E490870F6
:1034100008460078C82807DD0120074908709FED9D
:103420000B0A064880ED0A0A41F28731054801F08F
:103430000AFFBDEC028B10BD8C010020FC0B0220AA
:1034400000000000000400409001002000401C45E6
:1034500008B5072006F09EFC00BF04F089FD002897
:10346000FBD100BF04F0DAFB0028FBD104F0C6FE5C
:10347000044607F0E9FAA4490860FFF797F8172215
:10348000A249A34801F0BAF801221146A14801F06F
:103490003DF9012202219F4801F038F90021102056
:1034A00001F05AF82FE100BF4FF0FF31012006F084
:1034B0008FFA0128F8D198499448401C04F0C6FDC1
:1034C00096499248103004F0F1FB9448924B944A8C
:1034D000944900909448FFF7C5FE8F48007800F0AB
:1034E0000100002846D091480078E8BB012141F254
:1034F000883001F0EDFBDFED8E0A9FED8D0A8D4ADD
:1035000001218D4800F04CFC854A86498B48FDF727
:1035100083FB8B4B1A1F111F884804F07DF98148EB
:1035200090ED000A874880ED000A874880ED000A88
:10353000864880ED000A7B4890ED010A814880EDC5
:10354000010A814880ED010A804880ED010A754832
:1035500090ED020A7B4880ED020A7B4880ED020A6A
:103560007A4880ED020A00E005E070480078401CCF
:103570006E490870BBE0744890ED000A734880ED16
:10358000000A704890ED000A6F4880ED000A90ED47
:10359000000A6F48D0ED000A20EE200A6B48D0EDFB
:1035A000000A6B4890ED011A00EE810A5D48D0EDEB
:1035B000000A674890ED021A00EE810A614880ED2A
:1035C000000A614890ED010A604880ED010A5D48FB
:1035D00090ED010A5C4880ED010A90ED010A5C481B
:1035E000D0ED000A20EE200A5848D0ED010A5848D4
:1035F00090ED011A00EE810A4A48D0ED010A5448C4
:1036000090ED021A00EE810A4E4880ED010A4E4804
:1036100090ED020A4D4880ED020A4A4890ED020AF8
:10362000494880ED020A90ED020A4948D0ED000AAF
:1036300020EE200A4548D0ED020A454890ED011AD7
:1036400000EE810A3748D0ED020A414890ED021A97
:1036500000EE810A3B4880ED020A314B02463249B6
:103660009FED3C0A3548FDF74FFC354B1A1F111FE3
:10367000324804F0D1F838480088B8B9374890ED9E
:10368000000A374880ED000A344890ED010A3448BA
:1036900080ED010A314890ED020A314880ED020ABE
:1036A0002D480088401C2C49088020E02A480088CA
:1036B000B0F5FA7F0FDA42F210715F2003F03EFBA3
:1036C0002848007898B114480278234B16492448BA
:1036D00004F0F2F90BE020480088B0F5FA7F06D13B
:1036E00003F024FB1C480088401C1B4908800A4842
:1036F000D0ED040AB0EE600AFFF74AFE002006F0A3
:10370000F3F919490860CEE618010020440B0220A5
:1037100044B30008005001405C0B0220A00B0220C3
:10372000D40B0220C80B0220BC0B02208D0100200C
:10373000000000005CB30008FC0B0220EC0B022030
:10374000E80B02205C0C0220500C0220440C0220EA
:1037500068B300086F12833A8E0100207C0B0220B0
:10376000880B02208C0100201C01002070B5064649
:103770000C4615461548007838B3288888B914488F
:1037800090ED000A134880ED000A114890ED010AFF
:10379000104880ED010A0E4890ED020A0D4880EDB8
:1037A000020A0D4802782B460C490A4804F084F9B5
:1037B000084890ED000A84ED000A90ED010A84EDBE
:1037C000010A90ED020A84ED020A70BD8C0100200E
:1037D0007C0B0220880B02205C0B0220BC0B022019
:1037E00091ED000A054A82ED000A91ED010A82ED91
:1037F000010A91ED020A82ED020A70477C0B022059
:1038000070B50446002500262078A52878D105212A
:10381000204602F02BF8002872D0607800F10905EC
:103820002946204602F002F8002869D0A079617983
:1038300040EA0126B6F5017F4FD026DCB6F5817F40
:1038400040D010DC042E3AD006DC012E34D0022EFB
:1038500033D0032E53D131E0052E31D0A6F2011022
:1038600000284CD12DE040F20121701A8E422CD05C
:1038700006DCB6F5827F26D0A6F20510F8B923E063
:10388000012828D002283AD126E040F20A21701AF5
:103890008E422ED008DCA6F2052005282FD2DFE8C4
:1038A00000F01D1E1F252700F738052827D2DFE866
:1038B00000F021222324250021E020E01FE01EE06B
:1038C0001DE01CE01BE01AE019E06278E11D0D48E4
:1038D000FCF764FD13E012E011E010E00FE00EE0F1
:1038E0006278E11D0848FCF759FD08E007E007E0B1
:1038F00005E004E003E002E001E000E000BF00BFFB
:1039000070BD0000CA0E0220DD01002000B58FB09E
:103910000121480500F074FA1748FEF703FB4FF049
:1039200020600090002003901448019014480290F9
:103930000020039064200490002005904FF48060E4
:1039400006900020079008904FF4807009904FF483
:1039500040300A9004200B9003200C9000200D9022
:103960000E9069460448FEF7F9FB01210248FEF774
:10397000CDFA0FB000BD0000A0600240047C004002
:103980004C05022000B587B00121102000F038FA64
:103990000121C80700F044FA082200212948FEF757
:1039A00091FE082201212748FEF78CFE02208DF8A7
:1039B000080000208DF80A000320019001208DF8F6
:1039C0000B0003208DF8090001A91E48FEF732FE06
:1039D0004FF4E13003900020ADF81000ADF8120074
:1039E000ADF814000C20ADF816000020ADF818005A
:1039F00003A9154801F054FE0121134801F067FDA9
:103A0000012240F22441104801F025FE012240210C
:103A10000D4801F068FD012280210B4801F063FD93
:103A2000FFF774FF53208DF8000000208DF801008F
:103A30008DF8020001208DF80300684600F050F870
:103A400007B000BD00100240007C004091ED000A6C
:103A5000DFED1E0A20EE200A81ED000A91ED000A3A
:103A6000DFED1B0AB4EEE00AF1EE10FA04DD9FED83
:103A7000180A81ED000A0CE091ED000ADFED150A4D
:103A8000B4EEE00AF1EE10FA03D29FED120A81EDD6
:103A9000000A90ED000ADFED0E0AB4EEE00AF1EE46
:103AA00010FA04DD9FED0A0A80ED000A0CE090EDAB
:103AB000000ADFED080AB4EEE00AF1EE10FA03D2D4
:103AC0009FED040A80ED000A704700002A3A123E7A
:103AD000C3F54840C3F548C000BFFEE7704700008B
:103AE00070B5002100230F22C4781CB3174C246842
:103AF00004F4E064C4F5E064C4F30721C1F10404F4
:103B0000E3B20A4144789C40E1B2847814402143F6
:103B10000C07210E0E4C05786155047804F01F0542
:103B20000124AC4005786D11AD0005F1E025C5F824
:103B3000004109E0047804F01F050124AC40054D64
:103B40000678761145F8264070BD00000CED00E0C7
:103B500000E400E080E100E002490143024A116014
:103B6000704700000000FA050CED00E01CB50121D3
:103B7000302000F045F90320009001208DF804006A
:103B800000208DF8060002208DF8050001208DF838
:103B9000070069460448FEF74DFD30200090694655
:103BA0000248FEF747FD1CBD001402400010024011
:103BB000B0EE401A10B99FED790A704790ED100AE7
:103BC00080ED110A90ED0F0A80ED100AC0ED060A93
:103BD00080ED071A30EEC10A80ED0F0A0178002946
:103BE00075D190ED010AD0ED0F1A20EE210A80ED7B
:103BF000090A90ED0A0AD0ED021A90ED0F2A01EEA3
:103C0000820A80ED0A0A90ED0D0A80ED0E0A90ED11
:103C10000C0A80ED0D0A90ED0F0AD0ED101A30EE6F
:103C2000610A80ED0C0A90ED030AD0ED0C1A20EE2B
:103C3000210A80ED0B0A90ED0A0AD0ED051AB4EEC8
:103C4000E10AF1EE10FA04DD90ED050A80ED0A0AB2
:103C500010E090ED0A0AD0ED051AF1EE611AB4EE0B
:103C6000E10AF1EE10FA05D290ED050AB1EE400A34
:103C700080ED0A0A90ED090AD0ED0A1A30EE210A09
:103C8000D0ED0B1A30EE210A80ED080A90ED080AFB
:103C9000D0ED041AB4EEE10AF1EE10FA04DD90ED75
:103CA000040A80ED080A76E090ED080AD0ED041AC7
:103CB000F1EE611AB4EEE10AF1EE10FA6BD290ED7A
:103CC000040AB1EE400A80ED080A64E0FFE70178DB
:103CD000012960D190ED0F0AD0ED101A30EE610A83
:103CE000D0ED011A20EE210A80ED090A90ED020ABA
:103CF000D0ED0F1A20EE210A80ED0A0A90ED0D0A90
:103D000080ED0E0A90ED0C0A80ED0D0A90ED0F0A81
:103D1000D0ED101AB0EE002A02EE610AD0ED111AB1
:103D200030EE210A80ED0C0A90ED030AD0ED0C1A5A
:103D300020EE210A80ED0B0A90ED090AD0ED0A1A57
:103D400030EE210AD0ED0B1A30EE210AD0ED081A20
:103D500030EE210A80ED080A90ED080AD0ED041A31
:103D6000B4EEE10AF1EE10FA04DD90ED040A80ED04
:103D7000080A10E090ED080AD0ED041AF1EE611A7D
:103D8000B4EEE10AF1EE10FA05D290ED040AB1EEBC
:103D9000400A80ED080A90ED080A0EE700000000D6
:103DA00000B102B97047017092ED001A80ED011A5E
:103DB00092ED011A80ED021A92ED021A80ED031ABB
:103DC00080ED040AC0ED050A9FED0C1A80ED0E1A75
:103DD00080ED0D1A80ED0C1A9FED081A80ED081A7F
:103DE00080ED0B1A80ED0A1A80ED091A80ED111A88
:103DF00080ED101A80ED0F1A00BFD3E7000000001D
:103E000029B1064A12680243044B1A6004E0034ACF
:103E100012688243014B1A6070470000303802403C
:103E200029B1064A12680243044B1A6004E0034AAF
:103E300012688243014B1A6070470000403802400C
:103E400029B1064A12680243044B1A6004E0034A8F
:103E500012688243014B1A6070470000203802400C
:103E600029B1064A12680243044B1A6004E0034A6F
:103E700012688243014B1A607047000044380240C8
:103E800029B1064A12680243044B1A6004E0034A4F
:103E900012688243014B1A607047000024380240C8
:103EA000F0B5002100220024022500260223324F13
:103EB0003F6807F00C0121B1042905D0082937D14A
:103EC00005E02E4F076036E02D4F076033E02A4FA4
:103ED0003F1F3F68C7F38056274F3F1F3F6807F0DB
:103EE0003F036EB1264FB7FBF3F7DFF88CC0ACF1A0
:103EF000040CDCF800C0CCF3881C07FB0CF40CE0CD
:103F00001E4FB7FBF3F7DFF870C0ACF1040CDCF820
:103F100000C0CCF3881C07FB0CF4174F3F1F3F6811
:103F2000C7F301477F1C7D00B4FBF5F7076002E093
:103F3000124F076000BF00BF0F4F3F6807F0F0014E
:103F40000909104F7A5C0768D74047600A4F3F68FD
:103F500007F4E051890A0B4F7A5C4768D7408760C5
:103F6000054F3F6807F46041490B064F7A5C47688C
:103F7000D740C760F0BD0000083802400024F400BC
:103F8000001BB7001400002070B590B004460E4628
:103F9000154601214A48FFF733FF01211020FFF7A2
:103FA0005FFF01211020FFF76BFF00211020FFF7BA
:103FB00067FF072211464348FEF784FB80200E90DE
:103FC00002208DF83C0000208DF83E0003208DF883
:103FD0003D0000208DF83F000EA93A48FEF72AFB6D
:103FE000394801F089FA39480A900020ADF82C00D0
:103FF000ADF82E004FF48060ADF830000420ADF82D
:1040000032000020ADF834000AA92F4801F048FB27
:10401000012240212C4801F066FA10212A4801F0C3
:104020004DFA012240F22441274801F014FB0121FE
:10403000254801F04CFA25208DF83C0004208DF82D
:104040003D0000208DF83E0001208DF83F000FA8B4
:10405000FFF746FD1E48FDF765FF4FF00060019039
:104060001948001D029003940020049005950690C5
:104070004FF4806007900020089009904FF4807002
:104080000A904FF440300B9000200C900D900E9051
:104090000F9001A90E48FEF761F8002231460C4846
:1040A000FDF7F7FF01210A48FDF7E8FF0021084866
:1040B000FDF72CFF01210648FDF728FF10B070BD69
:1040C000020040000004024000100140A0860100F0
:1040D0004064024010B50020AB49087017E0AA48C0
:1040E000007800EB800101EBC000A849084400798A
:1040F000C00938B10020A6490880A6490880A64911
:10410000087010BDA0480078401C9F4908709E4868
:1041100000780528E3DBA048007878B99D4800883E
:10412000B0F5FA6F0ADD06F0F1FC9C490860012049
:10413000994908700020974908803BE0964800782C
:10414000022811D193480088B0F5FA6F0CDD0020E9
:10415000914908708F4908808C48407C20F080008D
:1041600080308A49487425E08B480078032821D1A3
:1041700088480088B0F5FA6F1CDD00208649087079
:10418000844908808148807F20F0800080307F490A
:10419000887703F0C3FBBDEEC00A10EE100A0A30A8
:1041A00040B27F494870084690F901002D2801DD92
:1041B0002D2048707B480068B0F9000010F5167F8C
:1041C00027DA78480068B0F9020010F5167F20DA87
:1041D00074480068B0F90400B0F5167F19DD714825
:1041E0000068B0F9060010F5167F12DA6D48006815
:1041F000807A02280DD16B480068C07A022808D165
:104200006548007828B963480088401C61490880E7
:1042100066E064480068B0F90000B0F5167F2ADD5A
:1042200060480068B0F90200B0F5167F23DD5D48F4
:104230000068B0F9040010F5167F1CDA59480068D0
:10424000B0F90600B0F5167F15DD56480068807A93
:10425000022810D153480068C07A02280BD14E487A
:10426000007840B14B480088401C4A490880022031
:104270004949087034E04B480068B0F90000B0F5D7
:10428000167F2ADD47480068B0F9020010F5167F56
:1042900023DA44480068B0F9040010F5167F1CDAF0
:1042A00040480068B0F9060010F5167F15DA3D4861
:1042B0000068807A022810D13A480068C07A022843
:1042C0000BD13548007840B132480088401C314954
:1042D000088003203049087002E000202D49088042
:1042E00006F014FC30490860084600682B4909684C
:1042F000401A44F62061884203D9002026490870FC
:10430000FFE62948006825490968401A42F2107101
:1043100088420AD92148006838B11F48007820B186
:1043200049001F2002F00AFD10E01F4800681B49E9
:104330000968401A0AD01948006838B11648007850
:1043400020B142F210715F2002F0F8FC12480078B0
:1043500020B10F480088401C0D4908800C48008897
:10436000B0F5C87F05DD0C48007810B10020084981
:10437000088007480088C82804DD0748007808B18D
:1043800002F0D4FC00BFBCE6F5000020700602205D
:10439000FC000020FE00002000010020F8000020AA
:1043A000B8000020B4000020F000002010B500216B
:1043B000014801F08CF810BD0010014000B101B9B6
:1043C00070470278437842EA0322C2F30A020A8065
:1043D0004278D210837842EA4312C2F30A024A803A
:1043E00082789211C37842EA8302037942EA8322F7
:1043F000C2F30A028A8002795210437942EAC31258
:10440000C2F30A02CA804279C2F301128A72427967
:1044100012119308CB728279C37942EA032212B255
:104420000A82027A437A42EA032213B201F11002AD
:104430004B82827AC37A42EA032213B201F110025C
:104440008B82037B8B75437BCB75827BC37B42EA7C
:1044500003220A83027C437C42EA032212B20A81CD
:104460000A88A2F5806212B20A804A88A2F58062A8
:1044700012B24A808A88A2F5806212B28A80CA8803
:10448000A2F5806212B2CA800A89A2F5806212B2D5
:104490000A8100BF94E7000000B587B00121202009
:1044A000FFF7AEFC01210805FFF7DAFC4FF460705E
:1044B000059002208DF8180000208DF81A000120C8
:1044C0008DF81B0003208DF8190005A92048FEF780
:1044D000B1F8052207211E48FEF7F4F8052208214D
:1044E0001B48FEF7EFF8052209211948FEF7EAF804
:1044F00001210805FFF7C4FC00214FF48010FFF7ED
:10450000BFFC0020ADF800004FF48270ADF802004F
:104510000020ADF804000220ADF806000120ADF83F
:1045200008004002ADF80A003820ADF80C00002069
:10453000ADF80E000720ADF810006946054800F000
:10454000FCF80121034800F0D5F807B000BD0000D9
:1045500000140240005001400A4A12884FF2C7730B
:104560001A40084B1A801A46128802431A801A46CB
:1045700012880A431A801A46128842F040021A80B2
:10458000704700000050014010B504460021184853
:10459000FDF7BCFC002116481830FDF7B7FC00BF42
:1045A0001348FDF782FD0028FAD100BF10481830EB
:1045B000FDF77BFD0028F9D10E490D481830FDF7B5
:1045C0008BFC0D490A48FDF787FC21460848FDF79A
:1045D000F1FD214606481830FDF7ECFD01210448A5
:1045E0001830FDF793FC01210148FDF78FFC10BD49
:1045F00070640240000C00203000002070B590B0C4
:1046000005460E46144601218805FFF7F9FB4420B4
:104610008DF83C0005208DF83D0000208DF83E000F
:1046200001208DF83F000FA8FFF75AFA2F48FDF739
:1046300079FC00BF2D48FDF738FD0028FAD14FF076
:10464000606000902A480190029600200390049434
:1046500005904FF480600690002007900890099024
:104660004FF440300A9000200B900C900D900E906B
:1046700069461E48FDF772FD012210211B48FDF717
:104680004FFD00211948FDF741FC18481838FDF787
:1046900049FC00BF15481838FDF707FD0028F9D17F
:1046A0004FF08060009012480190029540200390E6
:1046B0000494002005904FF480600690002007903D
:1046C000089009904FF480300A9000200B900C90D5
:1046D0000D900E90694605481838FDF73FFD002102
:1046E00002481838FDF712FC10B070BD8864024013
:1046F0000C50014021B1028842F04002028004E0E7
:1047000002884FF6BF731A40028070471AB183883F
:104710000B43838002E083888B438380704702468B
:10472000002013890B400BB1012000E000207047EE
:104730000146888970478181704710B50022028840
:1047400002F441520B884C8823438C882343CC8845
:1047500023430C8923434C8923438C892343CC89ED
:1047600023431A430280838B4FF2FF7423408383D9
:104770000B8A038210BD000030B500228B071C0F8E
:104780000F2303FA04F20B4B8C1053F8243093439D
:10479000084C8D1044F8253023468C1053F82430F3
:1047A0008C07240F00FA04F42343024C8D1044F8C4
:1047B000253030BD083801401CB501212020FFF70D
:1047C0001FFB0320009000208DF8040003208DF8CB
:1047D000050001208DF8070069460248FDF72AFF11
:1047E0001CBD0000001402400CB500200190009098
:1047F0004148006840F480303F49086000BF3E48AF
:10480000006800F4003000900198401C019000986E
:1048100018B90198B0F5A04FF1D13748006800F4FD
:10482000003010B10120009001E0002000900098BD
:10483000012860D130484030006840F080502E4957
:10484000403108602D48006840F440402B49086022
:10485000294808300068284908310860084600687F
:1048600040F4004008600846006840F4A05008602A
:104870002348091F0860081F006840F08070091F66
:10488000086000BF1C48006800F000700028F9D0E4
:104890001A48006840F480301849086000BF174883
:1048A000406800F480300028F9D01448006840F4D3
:1048B00000301249086000BF1048406800F4003022
:1048C0000028F9D040F205700E4908600A48083007
:1048D000006820F0030008490831086008460068B5
:1048E00040F00200086000BF03480830006800F094
:1048F0000C000828F8D10CBD0038024000700040C0
:10490000062D4008003C02406D4890ED000A6D48BD
:1049100080ED000A6C4890ED000A694880ED000ABD
:104920006A4890ED000A6648D0ED000A20EE200AA1
:104930006648D0ED010A634890ED001A01EE200AA6
:104940006348806AB0F9020000EE900AF8EEE00ACF
:104950009FED601A60EE810A5C4890ED021A00EE4D
:10496000810A594880ED000A90ED000A584880ED10
:104970000B0A806A00885649896AB1F90810401A02
:10498000B0F5805F08DD524890F83E00401E40B20E
:104990004F4981F83E0012E04D48806A00884C493A
:1049A000896AB1F90810401A10F5805F07DA4848A3
:1049B00090F83E00401C40B2454981F83E00444812
:1049C00090F83E00122804D1EF20414981F83E00C2
:1049D00008E03F4890F93E00123018B911203C49D8
:1049E00081F83E003A4890F93E00C0EB403038492B
:1049F000896A0988084400EE100AB8EEC00ADFEDA3
:104A0000360A20EE200A324880ED0D0A90F83F0069
:104A10002F4981F84100084690F8400081F8420093
:104A20002E480068807D81F83F002C480068C07DDA
:104A300081F84000084690F83F0060B10846B0F8A1
:104A40004400B0F5C87F0ADA0846B0F84400401CBC
:104A5000A1F8440003E000201D49A1F844001C48CF
:104A600090F8400068B11A48B0F84600B0F5C87F29
:104A70000BDA1748B0F84600401C1549A1F846006B
:104A800003E000201249A1F846001548007890B1D3
:104A900012480068C07A02280DD10D48B0F84800CD
:104AA000B0F5FA6F0BDA0A48B0F84800401C084924
:104AB000A1F8480003E000200549A1F8480070472C
:104AC000B0010020AC010020B401002080B3000838
:104AD000DC0D0220F1A23EBBC2B8B2B79C0100209F
:104AE000A001002042480068C07A032803D10120B9
:104AF000404908700DE03E480068C07A012805D0A2
:104B00003B480068007E00F0800010B10020394969
:104B1000087037480068C07A03280CD13448006810
:104B2000007E00F0400030B13248007818B9012012
:104B30003049087011E02E480068C07A03280CD173
:104B40002B480068007E00F0800030B129480078D2
:104B5000012802D100202749087026480078012842
:104B60003ED123480068C07A022803D12248007849
:104B700002280FD1214890F83F0018B11F4890F843
:104B8000410038B11D4890F8400060B11B4890F8D2
:104B9000420040B90220174908701848B0F85A007E
:104BA0001649A1F85C001548B0F84400B0F5C87F7C
:104BB0000BD01248B0F84600B0F5C87F05D00F48BA
:104BC000B0F84800B0F5FA6F0AD10A480078032817
:104BD00006D00A4890F8540010B902200549087020
:104BE00003480068C07A40B203490870704700006B
:104BF0009C010020A0010020A8010020DC0D022063
:104C0000042808D14FF0E021096941F004014FF078
:104C1000E022116107E04FF0E021096921F0040171
:104C20004FF0E0221161704710B505F05FFF0128D9
:104C300001D005F0B7FB10BD10B51548006840F471
:104C40007000134908601348006840F001001149E2
:104C5000086000200F49083108600E4800680E49BE
:104C600008400C4908600D48091D0860081F0068CD
:104C700020F48020091F0860002006490C310860DC
:104C8000FFF7B2FD4FF0006001498039086010BDA8
:104C900088ED00E000380240FFFFF6FE10300024EF
:104CA00010B50121084800F0C1F960B101210648A2
:104CB00000F0D6F8054802684068521C40F1000038
:104CC00002490A60486010BD00040040080100204D
:104CD00030B58BB005460C4601210220FFF7A0F845
:104CE00001210220FFF78CF8022205212D48FDF753
:104CF000E9FC01210220FFF7A3F800210220FFF7C1
:104D00009FF81D208DF8140005208DF81500002057
:104D10008DF8160001208DF8170005A8FEF7E0FEBB
:104D2000681E0990601E80B2ADF820000020ADF82A
:104D30002200ADF82800012211461B4800F087F937
:104D400008A9194800F084FA2020069002208DF866
:104D50001C0003208DF81D0000208DF81E0002208D
:104D60008DF81F0006A90F48FDF764FC6020ADF820
:104D700000000120ADF802000020ADF80C006946EB
:104D8000094800F0B5F90821074800F003FA0121AD
:104D9000054800F059F80121034800F064F80BB011
:104DA00030BD0000000402400004004010B50121A5
:104DB000064800F03BF938B10121044800F050F8F2
:104DC0000021024800F04FF810BD00000010004024
:104DD0007FB505460C4601211020FFF721F801217F
:104DE0001020FFF72DF800211020FFF729F81548B3
:104DF00000F054F8681E0290601E80B2ADF8040006
:104E00000020ADF80600ADF80C0001A90D4800F037
:104E10001FFA012211460B4800F019F936208DF8CF
:104E2000000004208DF8010000208DF80200012010
:104E30008DF803006846FEF753FE0121014800F09B
:104E400012F87FBD0010004021B1028842F08002BC
:104E5000028004E002884FF67F731A400280704798
:104E6000CA430282704721B1028842F001020280E7
:104E700004E002884FF6FE731A400280704731B199
:104E8000B0F8442042F40042A0F8442005E0B0F815
:104E90004420C2F30E02A0F84420704710B5044627
:104EA0005548844208D101210846FEF7E9FF002158
:104EB0000120FEF7E5FF9DE0B4F1804F08D101210C
:104EC0000846FEF7BDFF00210120FEF7B9FF91E083
:104ED0004A48844208D101210220FEF7B1FF002197
:104EE0000220FEF7ADFF85E04548844208D101214C
:104EF0000420FEF7A5FF00210420FEF7A1FF79E0C2
:104F00004048844208D101210820FEF799FF002182
:104F10000820FEF795FF6DE03B48844208D101214F
:104F20001020FEF78DFF00211020FEF789FF61E0C1
:104F30003648844208D101212020FEF781FF00215C
:104F40002020FEF77DFF55E03148844208D1012141
:104F50000220FEF795FF00210220FEF791FF49E0B5
:104F60002C48844209D101210804FEF789FF002161
:104F70004FF48030FEF784FF3CE02748844209D19B
:104F800001214804FEF77CFF00214FF40030FEF7BA
:104F900077FF2FE02148844209D101218804FEF7E0
:104FA0006FFF00214FF48020FEF76AFF22E01C48CB
:104FB000844208D101214020FEF742FF0021402019
:104FC000FEF73EFF16E01748844208D101218020F9
:104FD000FEF736FF00218020FEF732FF0AE012487C
:104FE000844207D101218015FEF72AFF0021A01578
:104FF000FEF726FF10BD0000000001400004004045
:1050000000080040000C0040001000400014004068
:1050100000040140004001400044014000480140BC
:1050200000180040001C00400020004030B502463F
:10503000002000230024158A05EA0103958905EA6A
:10504000010413B10CB1012000E0002030BD1AB101
:1050500083890B43838102E083898B43838170477B
:1050600070B5002400220023058C4FF6FE763540F3
:105070000584028C8388048B4FF68F752C40B51EF7
:105080002C400D882C43751E2A408D892A434D885B
:105090002A43104DA84202D00F4DA84213D14FF61B
:1050A000F7752A40CD892A434FF6FB752A408D8833
:1050B0002A434FF6FF652B404FF6FF552B400D8AD4
:1050C0002B434D8A2B43838004838D684563028480
:1050D00070BD000000000140000401400A460021AC
:1050E000018B4FF6F773194011430183704700009D
:1050F00070B5002400220023058C4FF6EF76354072
:105100000584028C8388048B48F6FF752C404FF68B
:10511000FF452C400D884FF6FF7606EA05252C4307
:105120004FF6DF752A408D8906EA05152A434D881A
:1051300006EA05152A43154DA84202D0144DA8428F
:105140001DD14FF67F752A40CD894FF6FF7606EACE
:1051500005152A434FF6BF752A408D8806EA0515C6
:105160002A434FF6FF352B404FF2FF752B400D8A37
:1051700006EA85052B434D8A06EA85052B43838085
:1051800004838D688563028470BD000000000140C7
:10519000000401400A460021018B4FF2FF731940C1
:1051A0004FF6FF7303EA022319430183704700009F
:1051B00070B5002200230024058C4EF6FF763540A2
:1051C0000584038C8488828B48F6FF752A404FF64D
:1051D000FF452A400D884FF6FF7606EA05252A434B
:1051E0004DF6FF752B408D8906EA05352B434D881A
:1051F00006EA05352B430A4DA84202D0094DA842C4
:1052000008D14BF6FF752C400D8A4FF6FF7606EA63
:1052100085152C43848082838D680564038470BD6A
:1052200000000140000401400A460021818B4FF23A
:10523000FF7319404FF6FF7303EA0223194381837A
:105240007047416370478163704701647047000095
:1052500000220288184B98420ED0184B98420BD06F
:10526000B0F1804F08D0164B984205D0154B9842AC
:1052700002D0154B984204D14FF68F731A404B88D9
:105280001A43124B984207D0114B984204D04FF664
:10529000FF431A400B891A4302804B68C3620B8894
:1052A0000385054B984202D0044B984201D18B7A7A
:1052B00003860123838270470000014000040140FF
:1052C0000004004000080040000C004000100040B6
:1052D0000014004010B540F22441114800F091F94B
:1052E000E8B10F4800880F4908600D48001D00888C
:1052F000086000210C48FCF709FE0B48FCF7DFFEB4
:10530000C0F1640007490860084800F0CFFA642142
:105310000648FBF75CF801210348FCF7F7FD10BDD8
:1053200000780040A800002058600240B00502202C
:1053300010B540F22441114800F063F9E8B10F487C
:1053400000880F4908600D48001D00880860002192
:105350000C48FCF7DBFD0B48FCF7B1FEC0F1640024
:10536000074908600848FEF74BFA64210648FBF736
:105370002EF801210348FCF7C9FD10BD007C004058
:10538000AC000020A06002404C05022010B540F2A5
:105390002551344800F035F918B1324800F0EAF9E7
:1053A0005FE040F224412F4800F02BF9002858D04C
:1053B0002C4800F0DFF92C48FCF785FE40BB0021AB
:1053C0002948FCF7A3FD2848FCF779FEC0F124002A
:1053D0002649088024212448FCF7ECFE2248006876
:1053E00040F400202049086021491F48FCF774FD63
:1053F00001211D48FCF78AFD1C480088122830D185
:105400001C491D48FEF7DAFF0020FCF7D7FE28E014
:1054100000211548FCF77AFD1348FCF750FEC0F157
:1054200024001249088024210F48FCF7C3FE0E48CF
:10543000006820F400200C4908600D490A48FCF778
:105440004BFD01210848FCF761FD0848008812283F
:1054500007D1084908482430FEF7B0FF0020FCF7C8
:10546000ADFE10BD00100140406402409A010020D2
:1054700000003010680C0220820C022010B540F2AF
:1054800025510C4800F0BDF818B10A4800F072F937
:105490000FE040F22441074800F0B3F848B1054856
:1054A00000F068F90449087008460178014800F0E6
:1054B00066F910BD00440040CA0C022001F40072DD
:1054C000B2F5007F00D100BFCA430280704721B10E
:1054D000828942F40052828104E082894DF6FF7392
:1054E0001A40828170471AB1838A0B43838202E09B
:1054F000838A8B438382704710B5044632488442C6
:1055000008D101211020FEF7BBFC00211020FEF77E
:10551000B7FC57E02D48844209D101214804FEF729
:105520008FFC00214FF40030FEF78AFC4AE0284847
:10553000844209D101218804FEF782FC00214FF446
:105540008020FEF77DFC3DE02248844209D1012104
:10555000C804FEF775FC00214FF40020FEF770FC34
:1055600030E01D48844209D101210805FEF768FC9E
:1055700000214FF48010FEF763FC23E017488442BB
:1055800008D101212020FEF77BFC00212020FEF71E
:1055900077FC17E01248844209D101218807FEF701
:1055A0004FFC00214FF08040FEF74AFC0AE00D4816
:1055B000844207D101214005FEF742FC002160052D
:1055C000FEF73EFC10BD000000100140004400400A
:1055D00000480040004C00400050004000140140D2
:1055E00000780040007C004002460020B1F5007FBA
:1055F00000D100BF13880B400BB1012000E0002058
:10560000704770B50246002400230025002040F6B4
:105610006A16B14200D100BFC1F3421501F01F0369
:10562000012606FA03F3012D02D19689334006E0E4
:10563000022D02D1168A334001E0968A33400C12C3
:10564000012606FA04F41688344013B10CB1012087
:1056500000E0002070BDF0B50346002400260025C0
:10566000002040F66A17B94200D100BF1846C1F3C6
:10567000421401F01F06012707FA06F5012C01D19B
:105680000C3004E0022C01D1103000E014301AB1CB
:1056900007682F43076002E00768AF430760F0BD6B
:1056A0002DE9FF4705460E460024A14600BFA0464F
:1056B000B08900B100BF2C8A24F44054F088044320
:1056C0002C82AC8941F20C608443B0883189084354
:1056D000718908430443AC81AC8A24F44074B089D6
:1056E0000443AC826846FEF7DBFB2048854202D0CB
:1056F0001F48854202D1DDF80C9001E0DDF80890EA
:10570000A88900F4004040B109EBC90000EB091082
:1057100031684900B0FBF1F707E009EBC90000EB85
:10572000091031688900B0FBF1F76420B7FBF0F095
:1057300004012009642101FB1078A88900F40040CD
:1057400040B1322000EBC800B0FBF1F000F00700E0
:10575000044308E0322000EB08106421B0FBF1F0B4
:1057600000F00F0004432C81BDE8FF8700100140CA
:105770000014014001468888C0F308007047C1F357
:1057800008028280704700BFFEE700002DED028B0B
:1057900002F008F8044602F0B9F8064602F038F8BC
:1057A00033E094ED000ADFED190A20EE200A1848D4
:1057B00080ED000A94ED010ADFED140A20EE200AC4
:1057C00080ED010A94ED020ADFED100A20EE200AB6
:1057D00080ED020A082004F0EFF808B902F01CFB83
:1057E00000BF35692846FAF704FE41EC180B53EC6C
:1057F000182B08A000F040F94FF4FA7004F0CAFA30
:10580000002004F071F908490860CAE733336542A3
:105810003C0E0220706F7765725F6F75743A2025B9
:1058200066200A0A00000000D401002070B5054679
:105830000C4600260DB1022C01D8002070BDA11E1F
:10584000094802882846FDF74DF80646F1B2A01E29
:10585000285C814206D1601E285CB0EB162F01D176
:105860000120EBE70020E9E7A600002070B505461F
:105870000C4600260DB1022C01DC002070BD601E1C
:1058800081B2FF222846FDF747F80646601E285CD5
:10589000B04201D10120F1E70020EFE710B501F09F
:1058A00081FF0149086010BDD80100202DE9F041B9
:1058B000044600260027002509E0605DA52800D1E8
:1058C00006E0462D01DBBDE8F081681CC5B2F4E7B7
:1058D00000BF60190521FFF7C9FFE0B1607800F152
:1058E000090660193146FFF7A1FFA0B1681D215CD0
:1058F000A81D205C41EA0027A12F0BD1E81D01194A
:105900000E220748FAF74AFD05490831081FFEF73D
:105910009DF800BF00BF01200249087000BFD2E718
:10592000480E0220DC01002000B58FB0012148059F
:10593000FEF766FA1748FCF7F5FA4FF02060009082
:105940000020039014480190144802900020039016
:1059500064200490002005904FF4806006900020A1
:10596000079008904FF4807009904FF440300A90EF
:1059700004200B9003200C9000200D900E9069469F
:105980000448FCF7EBFB01210248FCF7BFFA0FB01B
:1059900000BD00005860024004780040B0050220BD
:1059A00000B587B001211020FEF72AFA01218807EF
:1059B000FEF736FA082211462A48FCF783FE082231
:1059C00007212848FCF77EFE02208DF80800002001
:1059D0008DF80A004FF4C070019001208DF80B0083
:1059E00003208DF8090001A91E48FCF723FE4FF49F
:1059F000E13003900020ADF81000ADF81200ADF8D2
:105A000014000C20ADF816000020ADF8180003A912
:105A10001548FFF745FE01211348FFF758FD012205
:105A200040F224411048FFF716FE012240210E48A3
:105A3000FFF759FD012280210B48FFF754FDFFF7C6
:105A400073FF52208DF8000000208DF801008DF8C2
:105A5000020001208DF803006846FEF741F807B008
:105A600000BD000000100240007800400020014905
:105A700008707047DC0100200FB4054B10B503A976
:105A8000044A029800F000FB10BC5DF814FB000013
:105A9000A1750008F80100204100080218BF042089
:105AA0000A0E18BF40F001004FF07F4232EA0101B8
:105AB00008BF40F00200012808BF05207047000021
:105AC00010B54FF00E402DED028BB0EE408A18EE6F
:105AD000104A00EB4400B0F1506F4AD84FF0FC4040
