:020000040800F2
:10000000D01202207D0200088D2900081926000860
:1000100089290008550B0008133F00080000000064
:10002000000000000000000000000000C501000802
:10003000CD1B00080000000019020008553500081B
:10004000A1020008A1020008A1020008A102000804
:10005000A1020008A1020008A1020008A1020008F4
:10006000A1020008A1020008A1020008A1020008E4
:10007000A1020008A1020008A1020008A1020008D4
:10008000A1020008A1020008A1020008A1020008C4
:10009000590B0008A1020008A1020008F51C000885
:1000A000A1020008A1020008A1020008A1020008A4
:1000B000A1020008CD350008A1020008A102000835
:1000C000A1020008A1020008A1020008A102000884
:1000D000A1020008193B0008093C0008A102000821
:1000E000A1020008A1020008A1020008A102000864
:1000F000A1020008A1020008A1020008A102000854
:10010000A1020008A1020008A1020008A102000843
:10011000A1020008A1020008FD350008A1020008A4
:10012000A1020008A1020008A1020008A102000823
:10013000A1020008A1020008A1020008A102000813
:10014000990C0008A1020008A1020008A102000801
:10015000D1180008A1020008A1020008A1020008AD
:10016000A1020008A1020008A1020008A1020008E3
:10017000A1020008A1020008A1020008000000007E
:10018000A1020008A1020008613A0008BD3A000877
:10019000A1020008A1020008A1020008A1020008B3
:1001A0000000000000000000A1020008DFF810D0ED
:1001B00000F0CEFA00480047A5570008AFF30080D2
:1001C000D01202202A4B19680868B0E8F04F80F37B
:1001D0000988BFF36F8F4FF0000080F311887047DC
:1001E0000000000006480068006880F3088862B6D6
:1001F00061B6BFF34F8FBFF36F8F00DF00BF00BF4B
:1002000008ED00E0DFF80C00016841F470010160C6
:10021000704700BF88ED00E0EFF30980BFF36F8FF8
:10022000134B1A681EF0100F08BF20ED108A20E94A
:10023000F04F106008B44FF0500080F31188BFF306
:100240004F8FBFF36F8F07F033F94FF0000080F34B
:10025000118808BC19680868B0E8F04F1EF0100F4C
:1002600008BFB0EC108A80F30988BFF36F8F704726
:1002700024000020EFF30580704700000948016862
:1002800041F4700101600848804708480047FEE7D4
:10029000FEE7FEE7FEE7FEE7FEE7FEE7FEE7FEE736
:1002A000FEE7000088ED00E065350008AD010008BC
:1002B00040EA01039B0703D009E008C9121F08C0E8
:1002C000042AFAD203E011F8013B00F8013B521E68
:1002D000F9D27047D2B201E000F8012B491EFBD2DF
:1002E00070470022F6E710B513460A460446194641
:1002F000FFF7F0FF204610BD00F0004230F0004054
:100300000AD0C10D01F56071C0F3160042EA015137
:10031000C2084007114370470020014670470000A3
:1003200030B5041E71F1000404DB4FF0004440427C
:1003300064EB0101141E73F1000405DB1C464FF051
:100340000043524263EB04038B4208BF824230BD3C
:1003500030B5041E71F1000404DB4FF0004440424C
:1003600064EB0101141E73F1000405DB1C464FF021
:100370000043524263EB0403994208BF904230BDF0
:1003800030B50B46014600202022012409E021FA65
:1003900002F59D4205D303FA02F5491B04FA02F562
:1003A0002844151EA2F10102F1DC30BD2DE9F05FF9
:1003B0000546002092469B468846064681464024D4
:1003C0001BE0284641464746224600F0E2F95346E4
:1003D0005A46C01A914110D311461846224600F0E1
:1003E000C9F92D1A67EB01084F462246012000216A
:1003F00000F0C0F917EB00094E41201EA4F10104E2
:10040000DFDC484631462A464346BDE8F09F2DE9E9
:10041000FE4F804681EA0300C00F0C46009021F099
:10042000004123F00045B8EB0200A94105D2404647
:10043000214690461C460B46024623F000401043DE
:1004400047D0270DC7F30A00C3F30A510290401AA0
:10045000019040286BDAC3F3130040F4801B00982E
:10046000924620B10023D2EB030A63EB0B0B0198F9
:100470005946C0F14002504600F07CF906460D4650
:1004800050465946019A00F094F910EB080061417A
:10049000002487EA115284EAE7731A4340D0009A95
:1004A00062B3019A012A4FEA075215DC001B61EB87
:1004B00002014FF0004202EA0752CDE90042001C5F
:1004C00041F5801132462B4600F094F903B0BDE8A7
:1004D000F08F40462146F9E7001B61EB0201001C4A
:1004E00041F5801300185B412018A2F5001747EB77
:1004F000030140EAD570B6196D4111E06D084FEA6D
:10050000360645EAC0754FEA0752001B61EB02014F
:10051000001C41F5801149084FEA30000019514193
:1005200032462B4603B0BDE8F04F00F054B90098B6
:10053000012240000023D0EB020263EBE07300983D
:1005400021464FEAE074B8EB000061EB0401E9E7F3
:1005500083F000435BE781F0004158E72DE9FE4F4F
:1005600081EA030404F0004421F0004100944FF0BC
:10057000000B23F0004350EA01045ED052EA03046A
:100580005BD0C3F30A54C1F30A552C44A4F2F334EC
:100590000194A0FB0254C1F3130141F48011C3F391
:1005A000130343F4801301FB024400FB034E840A4F
:1005B000970A44EA815447EA8357A4FB07680295E7
:1005C0008D0A05FB07854FEA932C04FB0C54270585
:1005D000029D4FEA065847EA1637B5EB08056EEB61
:1005E000070C870E920E47EA811742EA8312A7FB97
:1005F0000201B6EB0B0164EB00042B0D43EA0C3354
:100600005E1844EB1C50DA465146E7FB0201C5F385
:1006100013044FEA0B3343EA14534FEA0432019CAC
:1006200043EA0603A4F10C040294009CCDE900B453
:1006300000F0E0F803B0BDE8F08F00200146F9E7D4
:100640002DE9F04D81EA030404F0004B21F0004550
:1006500014464FF0000A23F0004150EA050220D072
:1006600054EA01021DD0C5F30A570246C5F313032D
:10067000C1F31300C1F30A5640F4801543F480130C
:10068000A7EB0608101BD64608F2FD3873EB0500F1
:1006900002D308F1010801E092185B41B8F1000FA4
:1006A00003DA00200146BDE8F08D00204FF48011F0
:1006B000064684460EE0171B73EB050705D3121B95
:1006C00063EB050306434CEA010C49084FEA30008E
:1006D00092185B4150EA0107EDD152EA030012D0B3
:1006E00082EA040083EA0501084305D0101BAB41F0
:1006F00006D20122002306E000224FF0004302E070
:100700006FF0010253101AEB06004CEB085110EB8E
:100710000A0041EB0B01BDE8F04D00F05CB8C1F3FD
:100720000A52C1F3130140F2FF3341F480119A429F
:1007300002DA00200146704740F233439A42A2F2A7
:10074000334202DC524200F024B800F013B800003B
:10075000064C074D06E0E06840F0010394E807000E
:1007600098471034AC42F6D3FFF724FD48850008C3
:1007700068850008202A04DB203A00FA02F10020F4
:1007800070479140C2F1200320FA03F319439040CF
:100790007047202A04DB203A21FA02F0002170473A
:1007A00021FA02F3D040C2F12002914008431946D9
:1007B0007047202A06DBCB17203A41FA02F043EAC1
:1007C000E07306E041FA02F3D040C2F1200291400A
:1007D00008431946704710B5141E73F1000408DA77
:1007E000401C41F1000192185B411A4301D120F0F5
:1007F000010010BD2DE9F04D92469B4611B1B1FAB2
:1008000081F202E0B0FA80F220329046FFF7B2FFA8
:1008100004460F4640EA0A0041EA0B0153465A4695
:10082000084313D0114653EA010019D0C8F1400221
:100830005046FFF7AEFF05460E4650465946424623
:10084000FFF798FF084305D0012004E02046394611
:10085000BDE8F08D0020054346EAE0762C4337439F
:100860000A986305E40AA0EB08000022FD0A44EAA6
:1008700047540A3002D500200146E9E70105101966
:100880006941DDE9084500196941BDE8F04DA2E77D
:1008900070B58C1810F8015B15F0070301D110F842
:1008A000013B2A1106D110F8012B03E010F8016B6F
:1008B00001F8016B5B1EF9D12B0705D40023521EF2
:1008C0000DD401F8013BFAE710F8013BCB1A921C5A
:1008D00003E013F8015B01F8015B521EF9D5A14258
:1008E000D8D3002070BDCA430260704721B182682E
:1008F00042F00102826003E0826822F0010282601D
:10090000704700000021084A1168084A1140D0E9E8
:1009100000231A4383681A43C3681A431143044AE5
:10092000C2F804137047000004230140E030FCFFCC
:10093000002001400146C86C80B27047024600208A
:1009400013680B400BB1012000E00020704700004D
:1009500030B50246002000235068104C20400D792D
:100960000C6844EA05242043506090680C4C2040F9
:10097000D1E903542C438D682C434D7944EA450456
:1009800020439060D06A20F470000C7D641EE4B2B5
:10099000234340EA0350D06230BD0000FFFEFFFC5D
:1009A000FDF7FFC0F0B504460D4600200021092DDB
:1009B00011DDE068A5F10A0606EB4607072606FAF0
:1009C00007F18843A5F10A0606EB460603FA06F18D
:1009D0000843E0600CE0206905EB4507072606FAAE
:1009E00007F1884305EB450603FA06F10843206149
:1009F000072A0FDA606B561E06EB86071F2606FADB
:100A000007F18843561E06EB860605FA06F10843F1
:100A1000606322E00D2A0FDA206BD61F06EB8607F3
:100A20001F2606FA07F18843D61F06EB860605FA4D
:100A300006F10843206310E0E06AA2F10D0606EB20
:100A400086071F2606FA07F18843A2F10D0606EB7A
:100A5000860605FA06F10843E062F0BD816841F0C0
:100A6000804181607047000038B10849096841F44D
:100A70000001074AC2F8041306E00449096821F49A
:100A80000001034AC2F80413704700000423014028
:100A9000002001400E4890ED400AD0ED410AB4EE2E
:100AA000E00AF1EE10FA04DD90ED410A80ED400A13
:100AB0000DE0074890ED400AD0ED420AB4EEE00A9E
:100AC000F1EE10FA03D290ED420A80ED400A704731
:100AD000F008022038B54FF4407001F095FF4FF454
:100AE0007A7004F06DFA04F0D7FD06F01DF904F0F9
:100AF00079FE04F07FFB04F09DFD03F017FB03F08B
:100B000093FA01F097FE06F0CDF85A214EF66020D8
:100B100002F086FD002005231A460121009000F016
:100B200033F8002005231A460121009000F0CCF88C
:100B3000002408E0204604F089FE40F2C52004F0BD
:100B40009DFA601CC4B2042CF4DB05F011FD04F026
:100B500067F938BD00BFFEE710B50221084800F074
:100B600063FA58B10221064800F086F9054A0021CF
:100B7000034800F07CFB034800F084FC10BD00003B
:100B800000640040FC0602202DE9F0418AB00446D2
:100B90000D4616461F46DDF840800121082002F070
:100BA00087F80121480602F093F80121480602F077
:100BB0009FF800214FF0007002F09AF8032008908F
:100BC00002208DF8240000208DF8260003208DF8E7
:100BD000250001208DF8270008A92D4801F0DCF838
:100BE000092200212A4801F01FF909220121284881
:100BF00001F01AF900208DF81A0001208DF81B0071
:100C000000208DF81C008DF81D008DF81E008DF859
:100C10001F008DF816808DF817408DF818608DF83C
:100C20001950ADF8147005A91A4800F096FA002082
:100C30008DF80E008DF80F0001208DF810000020B7
:100C4000ADF80400ADF80600ADF80800ADF80A00F4
:100C5000ADF80C0001208DF8110001A800F060F93A
:100C6000012202210B4800F06FFA14208DF80000D9
:100C700004208DF8010000208DF8020001208DF87D
:100C80000300684601F084FE00200AB0BDE8F08150
:100C9000000C02400064004010B50221084800F03A
:100CA000C3F958B10221064800F0E6F8054A0021D0
:100CB000034800F0DCFA034800F0E4FB10BD00003C
:100CC00000680040100702202DE9F0418AB0044678
:100CD0000D4616461F46DDF840800121022001F036
:100CE000E7FF0121880601F0F3FF0121880601F0EA
:100CF000FFFF00214FF0806001F0FAFF4FF44050F9
:100D0000089002208DF8240000208DF82600032092
:100D10008DF8250001208DF8270008A92D4801F045
:100D20003BF809220C212B4801F07EF809220D2105
:100D3000284801F079F800208DF81A0001208DF87C
:100D40001B0000208DF81C008DF81D008DF81E0082
:100D50008DF81F008DF816808DF817408DF81860FB
:100D60008DF81950ADF8147005A91B4800F0F5F97D
:100D70000E208DF80E0000208DF80F0001208DF858
:100D800010000020ADF80400ADF80600ADF8080032
:100D9000ADF80A00ADF80C0001208DF8110001A893
:100DA00000F0BEF8012202210B4800F0CDF94020EE
:100DB0008DF8000004208DF8010000208DF802005D
:100DC00001208DF80300684601F0E2FD00200AB022
:100DD000BDE8F081000402400068004010B586B014
:100DE00004464FF40070019000208DF80C008DF83F
:100DF0000D0008208DF80E00200A8DF80F008DF8E8
:100E0000104000218DF811108DF812108DF813107C
:100E10008DF814108DF815108DF8161001A90248E0
:100E200000F09DFA06B010BD006800402DE9F041C9
:100E300004460D4616461F4640F2FF100C49086056
:100E400000200872487208208872200AC87208467A
:100E50000473290A41738573310AC1730674390A10
:100E6000417487740146034800F079FABDE8F081C7
:100E7000E806022000640040B1F5007F3AD00FDCA4
:100E8000202928D006DC01291CD004291DD00829DE
:100E900040D11DE0402921D0B1F5807F3AD126E034
:100EA000B1F5004F31D006DCB1F5806F25D0B1F53A
:100EB000006F2FD124E0B1F5803F12D0B1F5003F93
:100EC00028D111E0154A826025E00822C26022E0A4
:100ED0001022C2601FE0082202611CE010220261A1
:100EE00019E00822426016E01022426013E004225A
:100EF000426010E0042242600DE0042242600AE0F9
:100F0000002282610422426005E000228261042204
:100F1000426000E000BF00BF704700000101010017
:100F200010B50021837A012202FA03F13D4A1268CA
:100F300042F001023B4B1A603A4A1C3212688A4363
:100F4000384B1C331A60027BCAB9364A0C3212681D
:100F50008A43344B0C331A604288C38842EA034305
:100F6000304A4032847A42F834300288838842EA38
:100F700003432C4A4032847A02EBC4025360027B62
:100F8000012A19D1274A0C3212680A43254B0C3327
:100F90001A604288038842EA0343224A4032847A34
:100FA00042F83430C288838842EA03431D4A403203
:100FB000847A02EBC4025360C27A3AB9194A121D0C
:100FC00012688A43174B1B1D1A6006E0154A121D52
:100FD00012680A43134B1B1D1A60028932B9114A69
:100FE000143212688A430F4B14331A600289012AA3
:100FF00006D10C4A143212680A430A4B14331A60A1
:10100000427B012A06D1074A1C3212680A43054B6B
:101010001C331A60034A126822F00102014B1A6065
:1010200010BD00000066004070B504460D46002665
:1010300060692840002871D0B5F5807F5CD010DC55
:10104000082D35D006DC012D20D0022D24D0042D12
:1010500072D127E0102D31D0202D35D0402D6BD10D
:1010600038E0B5F5004F60D009DCB5F5007F49D018
:10107000B5F5806F4CD0B5F5006F5DD14FE0B5F59B
:10108000803F2DD0B5F5003F56D12FE0A0682D4907
:1010900000F014FC064651E0E068032100F00EFC6D
:1010A00006464BE0E068082100F008FC064645E0F3
:1010B000E068102100F002FC06463FE020690321B1
:1010C00000F0FCFB064639E02069082100F0F6FB41
:1010D000064633E02069102100F0F0FB06462DE0C3
:1010E0006068082100F0EAFB064627E060681021EE
:1010F00000F0E4FB064621E0A069012100F0DEFBE0
:1011000006461BE0A069022100F0D8FB064615E068
:10111000A069042100F0D2FB06460FE00FE0A069B1
:10112000702100F0CBFB064608E06068042100F067
:10113000C5FB064602E0FFE7002600BF00E00026F0
:10114000304670BD010101001AB143690B43436190
:1011500002E043698B434361704730B5024600208B
:101160000023146824F002041460146844F001049D
:10117000146000E05B1C546804F001041CB94FF6D5
:10118000FF74A342F6D1546804F001040CB90020A6
:101190006CE08C79012C04D1146844F08004146054
:1011A00003E0146824F080041460CC79012C04D18D
:1011B000146844F04004146003E0146824F0400410
:1011C00014600C7A012C04D1146844F020041460DB
:1011D00003E0146824F0200414604C7A012C04D13C
:1011E000146844F01004146003E0146824F0100440
:1011F00014608C7A012C04D1146844F00804146043
:1012000003E0146824F008041460CC7A012C04D1A3
:10121000146844F00404146003E0146824F0040427
:1012200014608C78A407CD7844EA05640D7944EA0B
:1012300005444D7944EA05540D886D1E2C43D46154
:10124000146824F001041460002300E05B1C54685F
:1012500004F001041CB14FF6FF74A342F6D15468A8
:1012600004F001040CB1002000E0012030BD10B5F5
:1012700000F5D87303EB01131B6803F0040313722A
:10128000137A53B900F5D87303EB01131B6840F2CE
:10129000FF7404EA5353136009E000F5D87303EBBD
:1012A00001131B686FF0604404EAD303536000F538
:1012B000D87303EB01131B6803F00203537200F5AC
:1012C000D87303EB01135B6803F00F03937200F50F
:1012D000D87303EB01135B681B0AD37400F5D87352
:1012E00003EB01139B68D37200F5D87303EB011372
:1012F0009B681C0A147300F5D87303EB01139B68F9
:101300001C0C547300F5D87303EB01139B681B0E80
:10131000937300F5D87303EB0113DB68D37300F507
:10132000D87303EB0113DB681C0A147400F5D8733F
:1013300003EB0113DB681C0C547400F5D87303EB4A
:101340000113DB681B0E937421B9C36843F02003BB
:10135000C36003E0036943F02003036110BD10B5CF
:1013600002460020936803F08063B3F1806F00D1E0
:1013700010E0936803F00063B3F1006F01D1012026
:1013800008E0936803F08053B3F1805F01D102203D
:1013900000E00420042874D002F5C07303EB0013AE
:1013A0001B6803F0010402F5C07303EB00131C601B
:1013B0000B7A7BB94B7A0C8843EA445302F5C0742C
:1013C00004EB00142468234302F5C07404EB0014FA
:1013D000236010E00B7A4C6843EAC4034C7A234341
:1013E00002F5C07404EB00142468234302F5C074B2
:1013F00004EB001423608B7A03F00F038B7202F569
:10140000C07303EB00135B6823F00F0402F5C07395
:1014100003EB00135C6002F5C07303EB00135B6821
:101420008C7A234302F5C07404EB001463608B7B59
:101430001C064B7B44EA03440B7B44EA0323CC7A2F
:10144000234302F5C07404EB0014A3608B7C1C06DC
:101450004B7C44EA03440B7C44EA0323CC7B2343C8
:1014600002F5C07404EB0014E36002F5C07303EBF3
:1014700000131B6843F0010402F5C07303EB001373
:101480001C6010BD10B504462068A0F2012007289A
:101490007ED2DFE800F061626364042342005548B5
:1014A000008800B253490881207BE17A40EA01209C
:1014B00050490880A17B607B41EA002000B24D4981
:1014C0008880217CE07B41EA002000B249494880C5
:1014D000607C8871012000F07BFB88E04648008832
:1014E00000B245490881207BE17A40EA0120424967
:1014F0000880A17B607B41EA002000B23E498880E1
:10150000217CE07B41EA002000B23B494880607CBE
:101510008871022000F05CFB69E03848008800B266
:1015200036490881207BE17A40EA0120334908806E
:10153000A17B607B41EA002000B230494880217CD9
:10154000E07B41EA002000B22C498880607C8871F1
:10155000032000F03DFB4AE000BF00BF00BF207841
:10156000401E274908700846007800EB8000254996
:1015700031F8100000B22249097801EB8101214ABB
:1015800002EB41010881207BE17A40EA012000E082
:101590002CE01B49097801EB810122F81100A17BA5
:1015A000607B41EA002000B21549097801EB810116
:1015B00002EB41014880217CE07B41EA002000B23F
:1015C0000F49097801EB810102EB41018880607CC1
:1015D0000B49097801EB810102EB4101887108494F
:1015E0000978091DC8B200F0F3FA00E000BF00BF9F
:1015F00010BD0000A0060220AA060220B4060220A8
:1016000000010020BE06022010B500242CB19FED81
:10161000040A044880ED1E0A01E003F05DFC10BDE1
:10162000000000002407022010B51548007920B101
:10163000012805D0022809D105E000F0BDF805E039
:10164000FFF7E2FF02E000F061F800BF00BF0C48C6
:1016500090ED1E1AF0EE410A90ED1D1AB0EE410A0F
:101660001C3001F0FDF90648418B018390ED0F0A13
:10167000BDEEC00A10EE100A01B20148418310BD50
:101680002407022010B501F02DFD00F021F80D49CE
:101690009FED0D0A0D4803F043FD03F0C5FE0B4915
:1016A00064390860B1EE000A084680ED1F0AB9EE01
:1016B000000A80ED200A00200871022081F88400D1
:1016C00010BD0000D08400086F12033B8807022081
:1016D0000EB50A4A07CA8DE80700002003F05AFE3B
:1016E00007498860DFED070A9FED070A6A46002177
:1016F00003481C3001F0ACFA0EBD0000D484000891
:10170000240702200000FA4400007A4610B52DEDAF
:10171000028B24480068B0F900000A2806DC214842
:101720000068B0F9000010F10A0F04DA1D480068E3
:10173000B0F9004000E0002400EE104AB8EEC00A04
:10174000DFED190A20EE208AB0EE480A1548643011
:1017500003F0BCFC9FED150AB4EEC08AF1EE10FA5E
:101760000BD29FED130AB4EEC08AF1EE10FA04DD3D
:101770009FED100A0B4880ED1A0A0A48D0ED1F1A97
:10178000B0EE611AD0ED201AF0EE610AD0ED1A1A0F
:10179000B0EE610A03F0F2FC024880ED1E0ABDECD7
:1017A000028B10BD240702200AD7A33BCCCC4C3DB2
:1017B000CCCC4CBD000000009FED050A054880ED33
:1017C0001D0A9FED030A80ED1E0A00214183704728
:1017D000000000002407022010B50848007918B95D
:1017E0000020FFF7FBFA08E0042005F0C7FA20B953
:1017F0000249B1F91A00FFF7F1FA10BD24070220DF
:1018000012488068B0F9020000EE100AB8EEC00A73
:10181000DFED0F0A20EE200A0C4880ED040A90ED5F
:10182000120ADFED0C0A20EE200A80ED030A806820
:10183000B0F9020000EE100AB8EEC00ADFED040AAB
:1018400020EE200A014880ED1D0A7047240702207F
:101850000A01DA390000FA4310B5002005F08EFACB
:1018600030B115480079144948710120087122E00F
:1018700011480068807A032806D10F4800790E4984
:1018800048710220087116E00B480068807A012830
:1018900006D10948007908494871012008710AE019
:1018A00005480068807A022805D10348007902497A
:1018B00048710020087110BD240702200246002054
:1018C00002EA01030BB1012000E000207047000094
:1018D00010B51049104800F029F9C8B10D490E485B
:1018E00000F022F803F06EFF06F018FA01280FD07E
:1018F0000A490B48006805F065FC0848006838B1E3
:101900004FF0805007490860BFF34F8FBFF36F8FD0
:1019100010BD0000000800208864024094010020EF
:101920001801002004ED00E00246094B9A4201D262
:10193000084801E00648103801F000531BB1064B7F
:101940000B40C36002E0044B0B4083607047000013
:1019500010640240006002407D0F7D0F21B10268DB
:1019600042F00102026003E0026822F0010202601C
:1019700070470000016821F0010101600021016051
:1019800041608160C1600161212141614A49884211
:1019900004D13D21484A103A91608CE04649183103
:1019A000884205D14FF47461434A103A916082E055
:1019B00041493031884205D14FF474113E4A103A02
:1019C000916078E03C494831884205D14FF074611C
:1019D000394A103A91606EE037496031884204D14B
:1019E0003649354A103AD16065E03349783188424A
:1019F00004D13349304A103AD1605CE02E4990312D
:101A0000884204D12F492C4A103AD16053E02A4928
:101A1000A831884205D14FF03D51274A103AD16094
:101A200049E02949884204D13D21274A083A1160FA
:101A300041E025491831884205D14FF47461224AAA
:101A4000083A116037E020493031884205D14FF41F
:101A500074111D4A083A11602DE01B494831884233
:101A600005D14FF07461184A083A116023E0164915
:101A70006031884204D11149134A121F11601AE0E3
:101A800011497831884204D10D490F4A121F116063
:101A900011E00D499031884204D10A490A4A121FC7
:101AA000116008E00849A831884204D14FF03D5147
:101AB000054A121F11607047106002403D0000206F
:101AC000400F002000003D201064024021B1026858
:101AD00042F48022026003E0026822F48022026065
:101AE000704722B1036843F40023036003E00368F6
:101AF00023F40023036001617047014600200A6857
:101B000002F001020AB1012000E000207047014606
:101B1000486880B27047014600200A6802F400223B
:101B20000AB1012000E000207047000030B50346F4
:101B30000A46002000240B4DAB4201D20A4901E0C5
:101B40000849103902F000550DB14C6800E00C68EE
:101B5000064D2C4004EA02050DB1012000E00020F2
:101B600030BD000010640240006002407D0F7D0F18
:101B700010B500220268134B1A40CC680B6823434F
:101B80004C6923438C692343CC6923430C6A234368
:101B90004C6A23438C6A23434C6B23438C6B234353
:101BA0001A430260426922F00702D1E90B34234351
:101BB0001A4342610B6943604B6883608B68C36062
:101BC00010BD00003F801CF041607047704700006E
:101BD00010B5044604EBC400454901EB80000068E1
:101BE00004EBC401424A02EB8101486006F0A6F80A
:101BF00004EBC4013E4A02EB8101086004EBC4001F
:101C0000114601EB8000C07CC0F38010B0B104EB42
:101C1000C40001EB8000C07C20F0400004EBC40154
:101C200002EB8101C87404EBC400114601EB800093
:101C3000006804EBC40102EB8101C86004EBC4003E
:101C40002B4901EB8000806990B304EBC401284A62
:101C500002EB81018869804758B304EBC400244932
:101C600001EB8000C07C20F02000203004EBC40198
:101C70001F4A02EB8101C87404EBC400114601EB5A
:101C80008000C07C20F08000803004EBC40102EBB7
:101C90008101C87404EBC400114601EB8000006AA6
:101CA00028B304EBC40102EB8101086A80471EE0FF
:101CB0000FE0FFE704EBC4000D4901EB8000C07C9E
:101CC00020F0800004EBC401094A02EB8101C874D2
:101CD0000DE004EBC400064901EB8000C07C20F05D
:101CE000800004EBC401024A02EB8101C87410BDFC
:101CF000AC07022010B54FF4807000F011F840B12D
:101D00004FF4807000F006F803F064FD172001F036
:101D1000AFF910BD0149086070470000143C014054
:101D200001460020034A12680A400AB1012000E07F
:101D300000207047143C0140C92005F095F900F0DF
:101D40000FFA04F0EFFD04E0012005F08DF900F03A
:101D50007FFB012005F012F80028F5D1022005F0E4
:101D60000DF80028F0D1032005F008F80028EBD189
:101D70000EE000F02BFC00F06BFB00F027F904F004
:101D8000CBFC0449088000F02DFB012005F06CF924
:101D9000EFE7000014010020F0B50A4600210023FF
:101DA000002400BF3DE0012505FA01F3156805EAAE
:101DB00003049C4234D105684F000326BE40B5435E
:101DC000056015794E00B540066835430560157904
:101DD000012D02D01579022D16D185684F000326FA
:101DE000BE40B543856055794E00B54086683543A1
:101DF0008560456801268E40B54345604568967903
:101E00008E40B6B235434560C5684F000326BE40DC
:101E1000B543C560D5794E00B540C6683543C56049
:101E2000491C1029BFD3F0BDF0B5002300244D0795
:101E3000ED0E02FA05F3CE1000F1200555F82650FC
:101E40004E07F70E0F26BE40B543CF1000F1200617
:101E500046F82750CE1000F1200555F8265045EAE7
:101E60000304CE1000F1200545F82640F0BD418363
:101E7000704701837047000030B5034613B94FF631
:101E8000FF7030BD09E013F8014B82EA0400C0B2D4
:101E9000054D35F8100080EA2222081EA1F101014B
:101EA000F1D11046EDE70000CE82000830B50346C0
:101EB00005E013F8010B80EA02040448025D081EE5
:101EC000A1F10105A9B2F4D1104630BDCD810008C1
:101ED00070B504460D460026C6B134484068806897
:101EE00000EE100ADFED320A20EE200A85ED000A2E
:101EF0002E484068406800EE100ADFED2E0A20EE02
:101F0000200A84ED000A02F077F94DE0274890EDB1
:101F1000400ADFED290A30EE200AD0ED410AB4EE86
:101F2000E00AF1EE10FA0CDC90ED400ADFED220A37
:101F300030EE600AD0ED420AB4EEE00AF1EE10FA9B
:101F400004D21E480078C0431C490870174890ED21
:101F5000860ADFED190A30EE200AD0ED870AB4EECA
:101F6000E00AF1EE10FA0CDC90ED860ADFED120AC1
:101F700030EE600AD0ED880AB4EEE00AF1EE10FA15
:101F800004D20F480078C0430D4908700B48007810
:101F900010B19FED090A01E09FED0A0A84ED000AE5
:101FA0009FED050A85ED000A70BD0000F0080220D3
:101FB0005839B4BB295C8FBD6F12033B160100205A
:101FC000170100206F1203BB704700001CB59FED86
:101FD0005C0A8DED010A9FED5A0A8DED000A594801
:101FE000007A40B1012809D002280CD003280FD173
:101FF000FFF7EAFF1CBD00F0C3F909E001A968463C
:10200000FFF766FF04E001A9684600F079F900BF18
:1020100000BF4C4890F83E02002863D1494890ED3B
:102020003F0ADFED490AB4EEE00AF1EE10FA08DCEF
:1020300090ED3F0ADFED450AB4EEE00AF1EE10FA4A
:1020400013D2404890ED3F0AB5EEC00AF1EE10FA07
:1020500002D29FED3F0A01E09FED3E0A8DED000A9E
:102060009FED370A8DED010A2AE0364890ED850A8A
:10207000DFED350AB4EEE00AF1EE10FA08DC90ED7F
:10208000850ADFED320AB4EEE00AF1EE10FA13D25F
:102090009FED2B0A8DED000A2A4890ED850AB5EEDA
:1020A000C00AF1EE10FA02D29FED2B0A01E09FED7B
:1020B0002B0A8DED010A03E00120224981F83E023E
:1020C000204890ED400ADDED000A30EE200A80ED58
:1020D000400A90ED860ADDED010A30EE200A80ED1F
:1020E000860A12E0174890ED400ADDED000A30EE56
:1020F000200A80ED400A90ED860ADDED010A30EEFF
:10210000200A80ED860AFEF7C5FC0E49087A03F026
:10211000BDF90C4890ED8B0ABDEEC00A10EE100A16
:1021200001B20848A0F8361290ED450ABDEEC00A8B
:1021300010EE100A01B20348A0F81E1100BF59E7C3
:1021400000000000F0080220CDCCCC3DCDCCCCBDB1
:1021500017B7513A17B751BA6F12833A6F1283BA51
:1021600010B500F065F82A49B7EE000A294802F0D8
:10217000D7FF2949B7EE000A284802F0D1FF03F043
:1021800053F924491039086003F046F92149103900
:10219000C1F8240103F012F91E491039C86008463D
:1021A000C06801891B481038A0F81811C068008861
:1021B00001B218481038A0F81A11D0F8240101898A
:1021C00014481038A0F83012D0F82401008801B269
:1021D00010481038A0F8321200200E491039A1F82A
:1021E0003C0203F0D3F80B49103948609FED0C0A0C
:1021F000084680ED870A9FED0B0A80ED880A9FED67
:102200000A0A80ED410A9FED090A80ED420A10BDDD
:10221000E084000800090220E4840008180A022073
:10222000B747134085EBD1BF00000000227609BFFD
:1022300000B593B02C4A07CA10AB07C32A4A0C3228
:1022400007CA0DAB07C3284A183207CA0AAB07C32F
:10225000254A243207CA07AB07C3234A303207CACC
:1022600004AB07C3204A3C3207CA01AB07C3DFED0A
:102270001F0A9FED1F0A10AA00211E4800F0E8FC6B
:10228000DFED1D0AB2EE040A0AAA002119484830FF
:1022900000F0DEFCDFED180AB2EE040A04AA002109
:1022A0001448903000F0D4FCDFED100A9FED100AC6
:1022B0000DAA0021114800F0CBFCDFED0F0AB2EEB1
:1022C000040A07AA00210D48483000F0C1FCDFEDE8
:1022D0000A0AB2EE040A01AA00210648883800F072
:1022E000B7FC13B000BD0000E884000800409C4526
:1022F0000060EA46280A02200000000010090220BF
:10230000002200EE902A00EE102A1B4A1268B2F951
:1023100004200A2A06DC184A1268B2F9042012F1D5
:102320000A0F05DA144A1268B2F9042000EE902A66
:10233000114A1268B2F906200A2A06DC0E4A12680F
:10234000B2F9062012F10A0F05DA0B4A1268B2F947
:10235000062000EE102AB8EEE01ADFED081A21EE92
:10236000211A81ED001AB8EEC01ADFED041A21EE31
:10237000211A80ED001A7047F00802209C5349365C
:102380009FED160A164880ED440A90ED3F0A80ED55
:10239000400AB0F81A11A0F818119FED100A80ED4C
:1023A000450A0021A0F81E119FED0C0A80ED8A0A53
:1023B00090ED850A80ED860AB0F83212A0F830124E
:1023C0009FED060A80ED8B0A0021A0F8361200204E
:1023D000034981F83E02A1F83C027047000000006A
:1023E000F008022010B51648B0F8360215490880EA
:1023F0001348B0F81E0114490880012004F0BEFC07
:1024000038B1022004F0BAFC18B1032004F0B6FC85
:10241000A8B90B48007A30B900231A461946184665
:10242000FEF704FD0BE000230848B0F90020064841
:10243000B0F900100348B0F90000FEF7F7FC10BD3A
:10244000F0080220100100201201002014010020D9
:1024500038B502F0ABFF054602F0ACFF0446564823
:10246000B0F93C0247F6FF71884205D05248B0F9F6
:102470003C0210F5004F24D14F4890ED850AB0F989
:102480003C02400000EE900AF8EEE00A9FED4B1A85
:1024900000EEC10A484880ED850A90ED840AB0F943
:1024A0003C02400000EE900AF8EEE00A9FED431A6D
:1024B00000EEC10A404880ED840A00203E49A1F8A0
:1024C0003C023D4890ED3F0A80ED3E0A90ED850AC2
:1024D00080ED840AC068008801B23748A0F81A115C
:1024E000D0F82401008801B23348A0F8321241F23A
:1024F0007070314A0090B2F81A2191B22E4AB2F8A7
:10250000182190B22E4B4FF42F7203F0D9FF2A48B6
:1025100080ED3F0A4FF47A60274A0090B2F83222E9
:1025200091B2254AB2F8302290B2264B002203F035
:10253000C7FF2148B0F93C02400000EE900AF8EED7
:10254000E00A9FED1E1A00EE810A1B4880ED850A05
:10255000B0F81A11A0F81811B0F83212A0F8301221
:1025600000F50571081F02F03DFB1348C068B0F983
:10257000020000EE100AB8EEC00ADFED130A20EEEA
:10258000200A0D4880ED430AD0F82401B0F902007A
:1025900000EE100AB8EEC00ADFED0B0A20EE200AAA
:1025A000054880ED890AB0F83612A0F83412B0F868
:1025B0001E11A0F81C1138BDF0080220DB0F4940A5
:1025C000100A0220280B02202316493A10B50020D9
:1025D00004F0D4FB18B101200E49087218E00D4830
:1025E0000068C07A032803D102200A4908720FE06C
:1025F00008480068C07A012802D10649087207E03D
:1026000004480068C07A022802D1002001490872FB
:1026100010BD0000F008022000BFFEE770B50646BE
:102620000C4615461548007838B3288888B91448F0
:1026300090ED000A134880ED000A114890ED010A60
:10264000104880ED010A0E4890ED020A0D4880ED19
:10265000020A0D4802782B460C490A4802F0B6FFE0
:10266000084890ED000A84ED000A90ED010A84ED1F
:10267000010A90ED020A84ED020A70BD8C0100206F
:10268000680B0220740B0220480B0220A80B0220CA
:1026900091ED000A054A82ED000A91ED010A82EDF2
:1026A000010A91ED020A82ED020A7047680B0220CE
:1026B00070B50446002500262078A52878D105218C
:1026C000204601F099FC002872D0607800F10905DD
:1026D0002946204601F070FC002869D0A079617974
:1026E00040EA0126B6F5017F4FD026DCB6F5817FA2
:1026F00040D010DC042E3AD006DC012E34D0022E5D
:1027000033D0032E53D131E0052E31D0A6F2011083
:1027100000284CD12DE040F20121701A8E422CD0BD
:1027200006DCB6F5827F26D0A6F20510F8B923E0C4
:10273000012828D002283AD126E040F20A21701A56
:102740008E422ED008DCA6F2052005282FD2DFE825
:1027500000F01D1E1F252700F738052827D2DFE8C7
:1027600000F021222324250021E020E01FE01EE0CC
:102770001DE01CE01BE01AE019E06278E11D0D4845
:10278000FDF796FD13E012E011E010E00FE00EE01F
:102790006278E11D0848FDF78BFD08E007E007E0DF
:1027A00005E004E003E002E001E000E000BF00BF5C
:1027B00070BD0000B20E0220DD01002000B58FB018
:1027C0000121480500F074FA1748FFF7D3F84FF0DD
:1027D000206000900020039014480190144802905B
:1027E0000020039064200490002005904FF4806046
:1027F00006900020079008904FF4807009904FF4E5
:1028000040300A9004200B9003200C9000200D9083
:102810000E9069460448FFF7ABF901210248FFF723
:102820009DF80FB000BD0000A0600240047C004095
:102830003805022000B587B00121102000F038FAD9
:102840000121C80700F044FA082200212948FFF7B7
:10285000EBFA082201212748FFF7E6FA02208DF85B
:10286000080000208DF80A000320019001208DF857
:102870000B0003208DF8090001A91E48FFF78CFA10
:102880004FF4E13003900020ADF81000ADF81200D5
:10289000ADF814000C20ADF816000020ADF81800BB
:1028A00003A9154801F0C2FA0121134801F0D5F936
:1028B000012240F22441104801F093FA0122402104
:1028C0000D4801F0D6F9012280210B4801F0D1F921
:1028D000FFF774FF53208DF8000000208DF80100F1
:1028E0008DF8020001208DF80300684600F050F8D2
:1028F00007B000BD00100240007C004091ED000ACE
:10290000DFED1E0A20EE200A81ED000A91ED000A9B
:10291000DFED1B0AB4EEE00AF1EE10FA04DD9FEDE4
:10292000180A81ED000A0CE091ED000ADFED150AAE
:10293000B4EEE00AF1EE10FA03D29FED120A81ED37
:10294000000A90ED000ADFED0E0AB4EEE00AF1EEA7
:1029500010FA04DD9FED0A0A80ED000A0CE090ED0C
:10296000000ADFED080AB4EEE00AF1EE10FA03D235
:102970009FED040A80ED000A704700002A3A123EDB
:10298000C3F54840C3F548C000BFFEE770470000EC
:1029900070B5002100230F22C4781CB3174C2468A3
:1029A00004F4E064C4F5E064C4F30721C1F1040455
:1029B000E3B20A4144789C40E1B284781440214358
:1029C0000C07210E0E4C05786155047804F01F05A4
:1029D0000124AC4005786D11AD0005F1E025C5F886
:1029E000004109E0047804F01F050124AC40054DC6
:1029F0000678761145F8264070BD00000CED00E029
:102A000000E400E080E100E002490143024A116075
:102A1000704700000000FA050CED00E01CB5012134
:102A2000302000F045F90320009001208DF80400CB
:102A300000208DF8060002208DF8050001208DF899
:102A4000070069460448FFF7A7F93020009069465F
:102A50000248FFF7A1F91CBD00140240001002401B
:102A6000B0EE401A10B99FED790A704790ED100A48
:102A700080ED110A90ED0F0A80ED100AC0ED060AF4
:102A800080ED071A30EEC10A80ED0F0A01780029A7
:102A900075D190ED010AD0ED0F1A20EE210A80EDDC
:102AA000090A90ED0A0AD0ED021A90ED0F2A01EE04
:102AB000820A80ED0A0A90ED0D0A80ED0E0A90ED73
:102AC0000C0A80ED0D0A90ED0F0AD0ED101A30EED1
:102AD000610A80ED0C0A90ED030AD0ED0C1A20EE8D
:102AE000210A80ED0B0A90ED0A0AD0ED051AB4EE2A
:102AF000E10AF1EE10FA04DD90ED050A80ED0A0A14
:102B000010E090ED0A0AD0ED051AF1EE611AB4EE6C
:102B1000E10AF1EE10FA05D290ED050AB1EE400A95
:102B200080ED0A0A90ED090AD0ED0A1A30EE210A6A
:102B3000D0ED0B1A30EE210A80ED080A90ED080A5C
:102B4000D0ED041AB4EEE10AF1EE10FA04DD90EDD6
:102B5000040A80ED080A76E090ED080AD0ED041A28
:102B6000F1EE611AB4EEE10AF1EE10FA6BD290EDDB
:102B7000040AB1EE400A80ED080A64E0FFE701783C
:102B8000012960D190ED0F0AD0ED101A30EE610AE4
:102B9000D0ED011A20EE210A80ED090A90ED020A1B
:102BA000D0ED0F1A20EE210A80ED0A0A90ED0D0AF1
:102BB00080ED0E0A90ED0C0A80ED0D0A90ED0F0AE3
:102BC000D0ED101AB0EE002A02EE610AD0ED111A13
:102BD00030EE210A80ED0C0A90ED030AD0ED0C1ABC
:102BE00020EE210A80ED0B0A90ED090AD0ED0A1AB9
:102BF00030EE210AD0ED0B1A30EE210AD0ED081A82
:102C000030EE210A80ED080A90ED080AD0ED041A92
:102C1000B4EEE10AF1EE10FA04DD90ED040A80ED65
:102C2000080A10E090ED080AD0ED041AF1EE611ADE
:102C3000B4EEE10AF1EE10FA05D290ED040AB1EE1D
:102C4000400A80ED080A90ED080A0EE70000000037
:102C500000B102B97047017092ED001A80ED011ABF
:102C600092ED011A80ED021A92ED021A80ED031A1C
:102C700080ED040AC0ED050A9FED0C1A80ED0E1AD6
:102C800080ED0D1A80ED0C1A9FED081A80ED081AE0
:102C900080ED0B1A80ED0A1A80ED091A80ED111AE9
:102CA00080ED101A80ED0F1A00BFD3E7000000007E
:102CB00029B1064A12680243044B1A6004E0034A31
:102CC00012688243014B1A6070470000303802409E
:102CD00029B1064A12680243044B1A6004E0034A11
:102CE00012688243014B1A6070470000403802406E
:102CF00029B1064A12680243044B1A6004E0034AF1
:102D000012688243014B1A6070470000203802406D
:102D100029B1064A12680243044B1A6004E0034AD0
:102D200012688243014B1A60704700004438024029
:102D300029B1064A12680243044B1A6004E0034AB0
:102D400012688243014B1A60704700002438024029
:102D5000F0B5002100220024022500260223324F74
:102D60003F6807F00C0121B1042905D0082937D1AB
:102D700005E02E4F076036E02D4F076033E02A4F05
:102D80003F1F3F68C7F38056274F3F1F3F6807F03C
:102D90003F036EB1264FB7FBF3F7DFF88CC0ACF101
:102DA000040CDCF800C0CCF3881C07FB0CF40CE02E
:102DB0001E4FB7FBF3F7DFF870C0ACF1040CDCF882
:102DC00000C0CCF3881C07FB0CF4174F3F1F3F6873
:102DD000C7F301477F1C7D00B4FBF5F7076002E0F5
:102DE000124F076000BF00BF0F4F3F6807F0F001B0
:102DF0000909104F7A5C0768D74047600A4F3F685F
:102E000007F4E051890A0B4F7A5C4768D740876026
:102E1000054F3F6807F46041490B064F7A5C4768ED
:102E2000D740C760F0BD0000083802400024F4001D
:102E3000001BB7001400002070B590B004460E4689
:102E4000154601214A48FFF733FF01211020FFF703
:102E50005FFF01211020FFF76BFF00211020FFF71B
:102E600067FF072211464348FEF7DEFF80200E90E1
:102E700002208DF83C0000208DF83E0003208DF8E4
:102E80003D0000208DF83F000EA93A48FEF784FF70
:102E9000394800F0F7FE39480A900020ADF82C00C0
:102EA000ADF82E004FF48060ADF830000420ADF88E
:102EB00032000020ADF834000AA92F4800F0B6FF18
:102EC000012240212C4800F0D4FE10212A4800F0B5
:102ED000BBFE012240F22441274800F082FF01217D
:102EE000254800F0BAFE25208DF83C0004208DF81E
:102EF0003D0000208DF83E0001208DF83F000FA816
:102F0000FFF746FD1E48FEF735FD4FF000600190CB
:102F10001948001D02900394002004900595069026
:102F20004FF4806007900020089009904FF4807063
:102F30000A904FF440300B9000200C900D900E90B2
:102F40000F9001A90E48FEF713FE002231460C48EF
:102F5000FEF7C7FD01210A48FEF7B8FD0021084829
:102F6000FEF7FCFC01210648FEF7F8FC10B070BD2E
:102F7000020040000004024000100140A086010051
:102F80004064024010B50021014800F066FE10BD0B
:102F90000010014000B101B970470278437842EA5D
:102FA0000322C2F30A020A804278D210837842EAEE
:102FB0004312C2F30A024A8082789211C37842EA2D
:102FC0008302037942EA8322C2F30A028A800279E9
:102FD0005210437942EAC312C2F30A02CA8042790C
:102FE000C2F301128A72427912119308CB7282796C
:102FF000C37942EA032212B28A81027A437A42EA10
:10300000032213B201F10C02CB81827AC37A42EA25
:10301000032213B201F10C020B82037B8B74437BFE
:10302000CB74827BC37B42EA03228A82027C437C8C
:1030300042EA032212B20A810A88A2F5806212B221
:103040000A804A88A2F5806212B24A808A88A2F574
:10305000806212B28A80CA88A2F5806212B2CA80E7
:103060000A89A2F5806212B20A8100BF94E70000CB
:1030700010B5044600211848FEF770FC00211648E0
:103080001830FEF76BFC00BF1348FEF736FD002832
:10309000FAD100BF10481830FEF72FFD0028F9D1F3
:1030A0000E490D481830FEF73FFC0D490A48FEF75F
:1030B0003BFC21460848FEF787FD214606481830AC
:1030C000FEF782FD012104481830FEF747FC01217C
:1030D0000148FEF743FC10BD70640240000C002064
:1030E000300000201CB501212020FFF7E1FD032066
:1030F000009000208DF8040003208DF805000120C9
:103100008DF8070069460248FEF746FE1CBD000028
:10311000001402400CB50020019000904148006866
:1031200040F480303F49086000BF3E48006800F42A
:10313000003000900198401C0190009818B9019847
:10314000B0F5A04FF1D13748006800F4003010B15D
:103150000120009001E0002000900098012860D13B
:1031600030484030006840F080502E4940310860BF
:103170002D48006840F440402B4908602948083039
:1031800000682849083108600846006840F400409B
:1031900008600846006840F4A05008602348091FF2
:1031A0000860081F006840F08070091F086000BFB9
:1031B0001C48006800F000700028F9D01A48006828
:1031C00040F480301849086000BF1748406800F498
:1031D00080300028F9D01448006840F400301249CB
:1031E000086000BF1048406800F400300028F9D0A3
:1031F00040F205700E4908600A480830006820F067
:1032000003000849083108600846006840F00200E1
:10321000086000BF03480830006800F00C00082870
:10322000F8D10CBD0038024000700040062D400867
:10323000003C02406D4890ED000A6D4880ED000AA8
:103240006C4890ED000A694880ED000A6A4890EDEC
:10325000000A6648D0ED000A20EE200A6648D0ED4C
:10326000010A634890ED001A01EE200A6348806A63
:10327000B0F9020000EE900AF8EEE00A9FED601A45
:1032800060EE810A5C4890ED021A00EE810A59480E
:1032900080ED000A90ED000A584880ED0B0A806A24
:1032A00000885649896AB1F90810401AB0F5805F64
:1032B00008DD524890F83E00401E40B24F4981F868
:1032C0003E0012E04D48806A00884C49896AB1F995
:1032D0000810401A10F5805F07DA484890F83E0061
:1032E000401C40B2454981F83E00444890F83E00F9
:1032F000122804D1EF20414981F83E0008E03F4800
:1033000090F93E00123018B911203C4981F83E0076
:103310003A4890F93E00C0EB40303849896A098844
:10332000084400EE100AB8EEC00ADFED360A20EEBF
:10333000200A324880ED0D0A90F83F002F4981F8AD
:103340004100084690F8400081F842002E4800688D
:10335000807C81F83F002C480068C07C81F84000E8
:10336000084690F83F0060B10846B0F84400B0F558
:10337000C87F0ADA0846B0F84400401CA1F84400AF
:1033800003E000201D49A1F844001C4890F84000CB
:1033900068B11A48B0F84600B0F5C87F0BDA174894
:1033A000B0F84600401C1549A1F8460003E0002093
:1033B0001249A1F846001548007890B112480068FB
:1033C000C07A02280DD10D48B0F84800B0F5FA6F68
:1033D0000BDA0A48B0F84800401C0849A1F8480038
:1033E00003E000200549A1F848007047B001002023
:1033F000AC010020B40100203C850008C40D02206F
:10340000F1A23EBBC2B8B2B79C010020A0010020CF
:1034100042480068C07A032803D10120404908705F
:103420000DE03E480068C07A012805D03B4800689E
:10343000007D00F0800010B1002039490870374845
:103440000068C07A03280CD134480068007D00F081
:10345000400030B13248007818B901203049087076
:1034600011E02E480068C07A03280CD12B48006870
:10347000007D00F0800030B129480078012802D199
:103480000020274908702648007801283ED12348AB
:103490000068C07A022803D12248007802280FD1A0
:1034A000214890F83F0018B11F4890F8410038B10A
:1034B0001D4890F8400060B11B4890F8420040B9A8
:1034C0000220174908701848B0F85A001649A1F8A8
:1034D0005C001548B0F84400B0F5C87F0BD0124826
:1034E000B0F84600B0F5C87F05D00F48B0F84800E6
:1034F000B0F5FA6F0AD10A480078032806D00A48C6
:1035000090F8540010B9022005490870034800687B
:10351000C07A40B203490870704700009C01002047
:10352000A0010020A8010020C40D0220042808D119
:103530004FF0E021096941F004014FF0E0221161F0
:1035400007E04FF0E021096921F004014FF0E0228B
:103550001161704710B504F0E1FB012801D004F0BF
:103560008BF810BD10B51548006840F47000134981
:1035700008601348006840F001001149086000200D
:103580000F49083108600E4800680E4908400C4990
:1035900008600D48091D0860081F006820F480209D
:1035A000091F0860002006490C310860FFF7B2FDD2
:1035B0004FF0006001498039086010BD88ED00E0DF
:1035C00000380240FFFFF6FE1030002410B5012144
:1035D000084800F053F960B10121064800F068F88E
:1035E000054802684068521C40F1000002490A6028
:1035F000486010BD000400400801002010B5012102
:10360000064800F03BF938B10121044800F050F8B9
:103610000021024800F04FF810BD000000100040EB
:103620007FB505460C4601211020FFF751FB012113
:103630001020FFF75DFB00211020FFF759FB154814
:1036400000F054F8681E0290601E80B2ADF80400CD
:103650000020ADF80600ADF80C0001A90D4800F0FF
:10366000BDF9012211460B4800F019F936208DF8FA
:10367000000004208DF8010000208DF802000120D8
:103680008DF803006846FFF783F90121014800F037
:1036900012F87FBD0010004021B1028842F0800284
:1036A000028004E002884FF67F731A400280704760
:1036B000CA430282704721B1028842F001020280AF
:1036C00004E002884FF6FE731A400280704731B161
:1036D000B0F8442042F40042A0F8442005E0B0F8DD
:1036E0004420C2F30E02A0F84420704710B50446EF
:1036F0005548844208D101210846FFF719FB0021F3
:103700000120FFF715FB9DE0B4F1804F08D10121A6
:103710000846FFF7EDFA00210120FFF7E9FA91E0F2
:103720004A48844208D101210220FFF7E1FA002132
:103730000220FFF7DDFA85E04548844208D10121E7
:103740000420FFF7D5FA00210420FFF7D1FA79E031
:103750004048844208D101210820FFF7C9FA00211E
:103760000820FFF7C5FA6DE03B48844208D10121EB
:103770001020FFF7BDFA00211020FFF7B9FA61E031
:103780003648844208D101212020FFF7B1FA0021F8
:103790002020FFF7ADFA55E03148844208D10121DD
:1037A0000220FFF7C5FA00210220FFF7C1FA49E025
:1037B0002C48844209D101210804FFF7B9FA0021FD
:1037C0004FF48030FFF7B4FA3CE02748844209D137
:1037D00001214804FFF7ACFA00214FF40030FFF755
:1037E000A7FA2FE02148844209D101218804FFF77C
:1037F0009FFA00214FF48020FFF79AFA22E01C483C
:10380000844208D101214020FFF772FA00214020B4
:10381000FFF76EFA16E01748844208D10121802094
:10382000FFF766FA00218020FFF762FA0AE01248EB
:10383000844207D101218015FFF75AFA0021A01513
:10384000FFF756FA10BD00000000014000040040E0
:1038500000080040000C0040001000400014004030
:103860000004014000400140004401400048014084
:1038700000180040001C00400020004030B5024607
:10388000002000230024158A05EA0103958905EA32
:10389000010413B10CB1012000E0002030BD1AB1C9
:1038A00083890B43838102E083898B438381704743
:1038B00070B5002400220023058C4FF6FE763540BB
:1038C0000584028C8388048B4FF68F752C40B51EBF
:1038D0002C400D882C43751E2A408D892A434D8823
:1038E0002A43104DA84202D00F4DA84213D14FF6E3
:1038F000F7752A40CD892A434FF6FB752A408D88FB
:103900002A434FF6FF652B404FF6FF552B400D8A9B
:103910002B434D8A2B43838004838D684563028447
:1039200070BD000000000140000401400A46002173
:10393000018B4FF6F7731940114301837047000064
:1039400070B5002200230024058C4EF6FF7635402A
:103950000584038C8488828B48F6FF752A404FF6D5
:10396000FF452A400D884FF6FF7606EA05252A43D3
:103970004DF6FF752B408D8906EA05352B434D88A2
:1039800006EA05352B430A4DA84202D0094DA8424C
:1039900008D14BF6FF752C400D8A4FF6FF7606EAEC
:1039A00085152C43848082838D680564038470BDF3
:1039B00000000140000401400A460021818B4FF2C3
:1039C000FF7319404FF6FF7303EA02231943818303
:1039D000704741637047016470470000002202880D
:1039E000184B98420ED0184B98420BD0B0F1804F34
:1039F00008D0164B984205D0154B984202D0154B73
:103A0000984204D14FF68F731A404B881A43124BD9
:103A1000984207D0114B984204D04FF6FF431A400A
:103A20000B891A4302804B68C3620B880385054BE0
:103A3000984202D0044B984201D18B7A038601232D
:103A400083827047000001400004014000040040F0
:103A500000080040000C004000100040001400402E
:103A600010B540F22441114800F091F9E8B10F4837
:103A700000880F4908600D48001D0088086000217B
:103A80000C48FDF76BFF0B48FEF741F8C0F16400EE
:103A900007490860084800F0CFFA64210648FCF79F
:103AA00020FC01210348FDF759FF10BD00780040BC
:103AB000A4000020586002409C05022010B540F28E
:103AC0002441114800F063F9E8B10F4800880F491C
:103AD00008600D48001D0088086000210C48FDF7B3
:103AE0003DFF0B48FEF713F8C0F16400074908607A
:103AF0000848FEF7DDFD64210648FCF7F2FB0121D2
:103B00000348FDF72BFF10BD007C0040A8000020FB
:103B1000A06002403805022010B540F2255134481B
:103B200000F035F918B1324800F0EAF95FE040F2F0
:103B300024412F4800F02BF9002858D02C4800F0E1
:103B4000DFF92C48FDF7E7FF40BB00212948FDF7CE
:103B500005FF2848FDF7DBFFC0F124002649088057
:103B600024212448FEF730F82248006840F4002061
:103B70002049086021491F48FDF7D6FE01211D4854
:103B8000FDF7ECFE1C480088122830D11C491D4866
:103B9000FFF700FA0020FEF71BF828E00021154887
:103BA000FDF7DCFE1348FDF7B2FFC0F12400124917
:103BB000088024210F48FEF707F80E48006820F41B
:103BC00000200C4908600D490A48FDF7ADFE0121AF
:103BD0000848FDF7C3FE08480088122807D10849A5
:103BE00008482430FFF7D6F90020FDF7F1FF10BD9B
:103BF00000100140406402409A0100200000301093
:103C0000540C02206A0C022010B540F225510C48D9
:103C100000F0BDF818B10A4800F072F90FE040F268
:103C20002441074800F0B3F848B1054800F068F9AE
:103C30000449087008460178014800F066F910BD93
:103C400000440040B20C022001F40072B2F5007F83
:103C500000D100BFCA430280704721B1828942F47B
:103C60000052828104E082894DF6FF731A408281FE
:103C700070471AB1838A0B43838202E0838A8B43A5
:103C80008382704710B504463248844208D101212E
:103C90001020FFF74DF800211020FFF749F857E0FA
:103CA0002D48844209D101214804FFF721F8002161
:103CB0004FF40030FFF71CF84AE02848844209D14D
:103CC00001218804FFF714F800214FF48020FFF74A
:103CD0000FF83DE02248844209D10121C804FFF7D2
:103CE00007F800214FF40020FFF702F830E01D48EC
:103CF000844209D101210805FEF7FAFF00214FF4A3
:103D00008010FEF7F5FF23E01748844208D1012117
:103D10002020FFF70DF800212020FFF709F817E019
:103D20001248844209D101218807FEF7E1FF0021F2
:103D30004FF08040FEF7DCFF0AE00D48844207D1D7
:103D400001214005FEF7D4FF00216005FEF7D0FFFA
:103D500010BD000000100140004400400048004039
:103D6000004C00400050004000140140007800402A
:103D7000007C004002460020B1F5007F00D100BF6A
:103D800013880B400BB1012000E00020704770B594
:103D90000246002400230025002040F66A16B142A6
:103DA00000D100BFC1F3421501F01F03012606FA3E
:103DB00003F3012D02D19689334006E0022D02D192
:103DC000168A334001E0968A33400C12012606FA27
:103DD00004F41688344013B10CB1012000E0002037
:103DE00070BDF0B50346002400260025002040F6F3
:103DF0006A17B94200D100BF1846C1F3421401F05E
:103E00001F06012707FA06F5012C01D10C3004E04A
:103E1000022C01D1103000E014301AB107682F4392
:103E2000076002E00768AF430760F0BD2DE9FF4778
:103E300005460E460024A14600BFA046B08900B149
:103E400000BF2C8A24F44054F08804432C82AC89AF
:103E500041F20C608443B08831890843718908437A
:103E60000443AC81AC8A24F44074B0890443AC822E
:103E70006846FEF76DFF2048854202D01F48854204
:103E800002D1DDF80C9001E0DDF80890A88900F47B
:103E9000004040B109EBC90000EB0910316849004E
:103EA000B0FBF1F707E009EBC90000EB091031683E
:103EB0008900B0FBF1F76420B7FBF0F004012009A2
:103EC000642101FB1078A88900F4004040B1322041
:103ED00000EBC800B0FBF1F000F00700044308E07D
:103EE000322000EB08106421B0FBF1F000F00F006D
:103EF00004432C81BDE8FF870010014000140140FD
:103F000001468888C0F308007047C1F30802828028
:103F1000704700BFFEE700002DED028B01F046FA6E
:103F2000044601F07DFA064601F076FA33E094ED9E
:103F3000000ADFED190A20EE200A184880ED000A79
:103F400094ED020ADFED140A20EE200A80ED010A4A
:103F500094ED010ADFED100A20EE200A80ED020A3E
:103F6000082002F00BFF08B901F0D8FB00BF35694B
:103F70002846FCF7C1F941EC180B53EC182B08A0AC
:103F800000F040F94FF4FA7003F06EF8002002F0F0
:103F900015FF08490860CAE733336542240E022042
:103FA000706F7765725F6F75743A202566200A0A14
:103FB00000000000D401002070B505460C46002624
:103FC0000DB1022C01D8002070BDA11E0948028845
:103FD0002846FDF751FF0646F1B2A01E285C81423B
:103FE00006D1601E285CB0EB162F01D10120EBE753
:103FF0000020E9E7A200002070B505460C46002627
:104000000DB1022C01DC002070BD601E81B2FF22C8
:104010002846FDF74BFF0646601E285CB04201D1E2
:104020000120F1E70020EFE710B501F0BFF90149E9
:10403000086010BDD80100202DE9F041044600269B
:104040000027002509E0605DA52800D106E0462D87
:1040500001DBBDE8F081681CC5B2F4E700BF601960
:104060000521FFF7C9FFE0B1607800F1090660198A
:104070003146FFF7A1FFA0B1681D215CA81D205C9F
:1040800041EA0027A12F0BD1E81D01190E22074894
:10409000FCF70EF905490831081FFEF72FFC00BF99
:1040A00000BF01200249087000BFD2E7300E022095
:1040B000DC01002000B58FB001214805FEF7F8FDB6
:1040C0001748FDF757FC4FF0206000900020039048
:1040D000144801901448029000200390642004903A
:1040E000002005904FF48060069000200790089013
:1040F0004FF4807009904FF440300A9004200B90E8
:1041000003200C9000200D900E9069460448FDF7A6
:104110002FFD01210248FDF721FC0FB000BD00007A
:1041200058600240047800409C05022000B587B02A
:1041300001211020FEF7BCFD01218807FEF7C8FD14
:10414000082211462A48FDF76FFE08220721284859
:10415000FDF76AFE02208DF8080000208DF80A00A5
:104160004FF4C070019001208DF80B0003208DF8F2
:10417000090001A91E48FDF70FFE4FF4E13003903E
:104180000020ADF81000ADF81200ADF814000C20BE
:10419000ADF816000020ADF8180003A91548FFF788
:1041A00045FE01211348FFF758FD012240F224414A
:1041B0001048FFF716FE012240210E48FFF759FD77
:1041C000012280210B48FFF754FDFFF773FF5220B7
:1041D0008DF8000000208DF801008DF8020001200C
:1041E0008DF803006846FEF7D3FB07B000BD000062
:1041F000001002400078004000200149087070471C
:10420000DC0100200FB4054B10B503A9044A029845
:1042100000F0E4F810BC5DF814FB0000A9510008A0
:10422000E80100202DED020B019820F000400190E4
:104230009DED000B02B0704702E008C8121F08C1D4
:10424000002AFAD170477047002001E001C1121F17
:10425000002AFBD1704700002DE9FF5F82B00021EA
:10426000DDE90430020DDDF840B0034318D044F618
:104270001050A2F2FF3242431514119801281FD0AA
:10428000A5EB0B00401C5FEA000A4FF000064E4F02
:10429000DFF83891B046504615D5CAF1000413E056
:1042A000119801244AA3012801D16FEA0B01029859
:1042B000119AC0E90031C0E9024206B0BDE8F09FA2
:1042C000CBF10000DFE704460021404A491842EBE9
:1042D0000450CDE9001012E0E00707D032463B461B
:1042E00040464946FCF73AF98046894632463B4605
:1042F00010461946FCF732F906460F466410002CAA
:10430000EAD1DDE90401DDE90023BAF1000F06DAA4
:10431000FCF724F942464B46FCF720F905E0FCF790
:104320008FF942464B46FCF78BF904460E460022B5
:10433000284BFCF70DF803D84FF0FF30014607E09B
:104340000022254B20463146FCF761F8FCF7E7F9DF
:10435000102409E0002C0ADB0A220023FCF726F8CF
:10436000039B30321A55641E50EA0102F2D1641CDC
:10437000039AC4F111031444119A012A03D00122B3
:1043800008430DD10AE0084304D000204FF0110B80
:10439000119072E7A3EB0B056D1E0DE05B4504DD8C
:1043A0004FF0000205F1010504E003DA4FF00002CE
:1043B000A5F10105002AECD002981199C0E902315B
:1043C000C0E9004579E70000000014400000F03F1C
:1043D000300000000000F0430000E03F2DE9FF4FF7
:1043E00095B09A46884606460025EEE1252877D105
:1043F00000242746F94A0121039400E0044316F8FB
:10440000013F203B01FA03F01042F7D130782A280F
:1044100011D06FF02F033078A0F13002092A16D89E
:10442000039A44F0020402EB820203EB42021044BE
:10443000761C0390EFE758F8042B0392002A03DA66
:10444000504244F40054039044F00204761C307847
:104450002E2816D116F8010F44F004042A280DD096
:104460006FF02F023078A0F13003092B09D807EB49
:10447000870302EB4303C718761CF3E758F8047B65
:10448000761C30786C280FD006DC4C2817D06828B2
:104490000DD06A2814D104E0742810D07A280FD1E6
:1044A0000DE044F400140AE044F4801401E044F404
:1044B00040147278824202D104F58014761C761C76
:1044C000307866280BD013DC582877D009DC002818
:1044D00075D04528F6D04628F4D047281AD193E164
:1044E00018E0632835D0642879D0652812D18BE193
:1044F000702873D008DC6728F1D069286FD06E2847
:104500000DD06F2806D1ACE073282CD0752874D05C
:10451000782853D05246179990476D1C54E1C4F344
:104520000250022809D003280DD0D8F80010042822
:104530000DD00D6008F1040846E1D8F80010EA1724
:10454000C1E90052F6E7D8F800100D80F2E70D70CF
:10455000F0E718F8041B8DF8001000208DF801001A
:10456000EB46012003E058F804BB4FF0FF30610731
:104570004FF0000102D40DE009F101018946B94272
:104580000FDA8145F8DB1BF809100029F4D108E0A7
:1045900009F1010189468142FADB1BF80910002963
:1045A000F6D103985346A0EB090721463846179ADF
:1045B00000F080FA284400EB090507E044E008E138
:1045C0000DE01BF8010B524617999047B9F101090C
:1045D000F7D2534621463846179AF2E039E00A21CD
:1045E000C4F302524FF0000B0091022A06D058F893
:1045F000040BC117032A09D00AE023E008F10700E1
:1046000020F00702F2E80201904605E000B2C1176F
:10461000042A01D140B2C117002906DA0A46002156
:10462000404261EB02012D2202E0220504D52B223B
:104630008DF80420012203E0E20701D02022F7E7F1
:10464000914657E00A2100E010214FF0000B009145
:104650000BE010214FF0000B44F0040408270091F8
:1046600003E008204FF0000B0090C4F30252022A2E
:1046700005D058F8040B0021032A08D008E008F1FF
:10468000070020F00702F2E80201904603E080B242
:10469000042A00D1C0B24FF0000922072AD532788F
:1046A000702A07D0DDF800C08CF0100C5CEA0B0C0F
:1046B00005D00EE040228DF80420012208E050EAE7
:1046C000010306D030238DF804308DF80520022236
:1046D0009146009B83F0080353EA0B030AD150EA8A
:1046E000010201D1620705D530228DF804204FF078
:1046F00001097F1E3278582A04D039A20C920CAAE4
:1047000002920BE03BA2F9E75B46009AFBF74EFEF4
:104710000C9B9B5C029A521E0292137050EA01029B
:10472000F2D1029804A9081A00F1200B600702D503
:1047300024F4803400E001275F4502DDA7EB0B0085
:1047400000E0002000EB0B01009003984944401A60
:104750000390E00306D453462146179A039800F0CD
:10476000A9F90544002706E001A85246C05D179943
:1047700090476D1C7F1C4F45F6DBE0030CD553467C
:104780002146179A039800F095F9054404E030207B
:104790005246179990476D1C0099481E00900029B9
:1047A000F5DC08E00298029952460078491C029113
:1047B000179990476D1CBBF10001ABF1010BF1DCC7
:1047C0005BE100F065F90544761C307800287FF441
:1047D0000DAE19B02846BDE8F08F00000928010091
:1047E0003031323334353637383961626364656667
:1047F0000000000030313233343536373839414229
:104800004344454600000000600700D4062708F135
:10481000070020F00700F0E80223804603F0004C78
:104820005FEA0C0001D097A009E0200501D596A011
:1048300005E0E00701D095A001E0AFF24C00139035
:10484000307823F0004365280CD006DC452809D0D9
:1048500046281DD047287FD13BE0662818D067281E
:104860007AD136E00021112F01DB112000E0781C05
:10487000CDE9000104A90CA8FFF7EEFCDDE90D016C
:104880000C9A4FF0000B07F10109109200914EE0D5
:104890004FF000400097CDE9011004A90CA8FFF7E4
:1048A000DBFCDDE90D020C9B0F994FF0000B9146EC
:1048B0001093009211B9791C00EB0109B7EB0900C4
:1048C00003D4C0F1FF3B07F10109A9EB07000190F8
:1048D00042E0012F00DA01270021112F01DD112014
:1048E00000E03846CDE9000104A90CA8FFF7B4FCAC
:1048F000DDE90D010C9A00914FF0000BB9461092C2
:1049000021070FD4009A4A4503DA914601E0A9F144
:104910000109B9F1010F05DD109AA9F10101515CFE
:104920003029F4D0B84202DA10F1040F03DA012181
:10493000CDE9011010E0002803DC8344A9EB00015D
:1049400002E0411C494500DD8946A0EB0B00401CFC
:1049500001904FF000400290200705D4019848458F
:1049600002DB4FF0FF30019000208DF84B000298E1
:104970000DF14B07B0F1004F25D002200C902B20F9
:104980000D90029800280CDA404202902D200D90E4
:1049900007E00A210298FBF7F3FC3031029007F898
:1049A000011D0C99481E0C900029F2DC0298002889
:1049B000EFD1791E0D980870307800F0200040F09B
:1049C000450007F8020D11A8C01BC01D02901398E6
:1049D000007800B1012000EB0901019801EBE071C2
:1049E000029801440398401A401E0390E00306D445
:1049F00053462146179A039800F05CF80544139833
:104A0000007818B15246179990476D1CE00323D5E2
:104A100053462146179A039800F04CF805441BE0D2
:104A2000BBF1000F07DB0098584504DD109817997B
:104A300010F80B0001E0179930205246904701987A
:104A40000BF1010B401E05F10105019004D12E2050
:104A50005246179990476D1CB9F10001A9F101095F
:104A6000DEDC05E017F8010B5246179990476D1CE4
:104A70000299481E02900029F4DC53462146179AF9
:104A800003989EE62D0000002B000000200000008F
:104A90002DE9F041044600251E461746880404D43B
:104AA00005E039462020B0476D1C641EF9D5284624
:104AB000BDE8F0812DE9F041044600251E469046F0
:104AC000C80301D5302700E02027880404D505E07D
:104AD00041463846B0476D1C641EF9D52846BDE8EE
:104AE000F081000000B587B001210820FEF7E0F852
:104AF00001214804FEF7ECF801214804FEF7F8F81C
:104B000000214FF40030FEF7F3F807220621284871
:104B1000FDF78AF9072205212548FDF785F9602070
:104B2000059002208DF8180000208DF81A0003204F
:104B30008DF8190000208DF81B0005A91C48FDF711
:104B40002BF91C48FFF79EF84FF4165001900020F7
:104B5000ADF80800ADF80A00ADF80C000C20ADF877
:104B60000E000020ADF8100001A91248FFF75EF911
:104B700010211048FFF768F8012240F224410D4847
:104B8000FFF72FF901210B48FFF767F826208DF872
:104B9000000001208DF8010002208DF802000120A4
:104BA0008DF803006846FDF7F3FE07B000BD000076
:104BB000000C02400044004010B500210148FEF7FF
:104BC00008FF10BD0018004070B504460D460448AB
:104BD0000480294602482838FEF7FBFE70BD00001D
:104BE0002818004091ED000AD0ED000A30EE600A6E
:104BF000F9EE000AB4EEE00AF1EE10FA10D2174A0C
:104C0000B2F83C22521C12B2144BA3F83C2291ED94
:104C1000000ADFED130A30EE200A81ED000A1CE0E5
:104C200091ED000AD0ED000A30EE600AF1EE000AC4
:104C3000B4EEE00AF1EE10FA0FDD084AB2F83C22B9
:104C4000521E12B2054BA3F83C2291ED000ADFED93
:104C5000040A30EE600A81ED000A7047F008022075
:104C6000DB0FC940F8B50024002500BF69E03649D4
:104C700068180122694600F065FA9DF8000004EB0F
:104C8000840101EBC401314A50549DF8010004EB4A
:104C9000840101EBC401114448709DF8020004EB4B
:104CA000840101EBC401114488709DF8030004EBFA
:104CB000840101EBC4011144C870281D85B204EBC6
:104CC000840303EBC403164633441B7903F07F02CD
:104CD00004EB840303EBC4033344D3F805101A4BED
:104CE000E81800F02FFA04EB840000EBC400314612
:104CF0000844007900F07F0005EB800085B204EBEA
:104D0000840000EBC4000844C078552817D004EB99
:104D1000840000EBC4000844D0F8090078B104EB2B
:104D2000840000EBC4000844007920F0800080304B
:104D300004EB840101EBC401324611440871601C8C
:104D4000C4B2052C93DBF8BD00001E085C060220EF
:104D500070B505460C462E460CB9002070BD012CDE
:104D600003D1FFF729FF0120F8E70020F6E7000054
:104D700070B506460C46354634B9294605F10C0097
:104D8000FDF786FC002070BD012C1BD10E4A294680
:104D900005F10C00FDF742FC0B48008844F6206149
:104DA000884206DD002008490880FFF705FF012042
:104DB000E9E7FEF7E7F842F210715F20FFF704FF22
:104DC0000020E0E70020DEE7FE00002070B5054689
:104DD0000C460CB9012070BD00200F49087000F08E
:104DE00027FBBDEEC00A10EE100A0A3040B20A4995
:104DF0004870084690F901002D2801DD2D204870EB
:104E000043F23900044948809FED040A10EE100A6D
:104E100048600120DFE70000B4000020DF8FB441CC
:104E200010B5002400BF26E02748015D04EB840094
:104E300000EBC400254A1044007961F3060004EB3E
:104E4000840101EBC40111440871214850F8240089
:104E500004EB840101EBC4011144C1F805001D48B5
:104E600050F8240004EB840101EBC4011144C1F8A3
:104E70000900601CC4B2052CD6DBFFF7F3FE00244A
:104E80001FE004EB840000EBC40010490844C07824
:104E9000552814D104EB840000EBC4000844D0F87A
:104EA000090060B10A4951F8240004EB840101EBC8
:104EB000C401064B1944D1F8092000219047601C19
:104EC000C4B2052CDDDB10BDD00000205C06022042
:104ED000BC000020D800002010B5274991F88400BC
:104EE00000F070FA0446E4B1FFEE000AB0EE600A8A
:104EF000214890F8840018B91F4880ED1E0A0FE081
:104F00001D4890F88400022805D1F1EE400A1A48A5
:104F1000C0ED1E0A04E0DFED190A1748C0ED1E0AB5
:104F200028E014BB144890F8840048B9B7EE080A8A
:104F3000114880ED1E0A02200F4981F8840019E013
:104F40000D4890F88400022809D1BFEE080A0A48EB
:104F500080ED1E0A0020084981F884000AE09FEDD8
:104F6000070A054880ED1E0A04E09FED040A024886
:104F700080ED1E0A10BD0000240702200000000082
:104F800040F2651002F070F8FCF77CFB02E00220B2
:104F900002F06AF8042001F0F1FE0028F7D101F0D8
:104FA000EDFE0028F3D10AE0FCF756FCFCF728FCE4
:104FB000FCF73AFBFCF710FC022002F055F8F3E78F
:104FC00070B504460025681FFEF7B0FA1348006864
:104FD0001349B0FBF1F013490870104800684FF412
:104FE000FA51B0FBF1F0104908600CB94FF47A7433
:104FF0000A480068B0FBF4F0C5086D1E4FF0E020D1
:10500000006940F002004FF0E02108610846456168
:10501000006940F00100086170BD00000000002040
:1050200000127A00980000209C00002070B5034612
:10503000002400210020002200254FF0E0267569A1
:105040000D4E366803FB06F44FF0E026B16910E020
:105050004FF0E026B06988420BD0884202D20E1A87
:10506000324402E02E1A0E4432440146A24200D3DA
:1050700000E0EDE700BF70BD9C00002070B5034666
:10508000002400210020002200254FF0E026756951
:105090000D4E367803FB06F44FF0E026B16910E0C0
:1050A0004FF0E026B06988420BD0884202D20E1A37
:1050B000324402E02E1A0E4432440146A24200D38A
:1050C00000E0EDE700BF70BD9800002010EE101A60
:1050D0000160816800EE901AC16801EE101A70EE4E
:1050E000811A816800EE901A80EEA11A416800EEE4
:1050F000901A61EE200A816801EE101AC16801EE73
:10510000901A31EE212A01EE101AC1EE021A01683E
:1051100001EE101A41EE810A10EE901A41607047BC
:1051200010EE102AC2600A688260DFED050A10EEF8
:10513000902A0260DFED020A10EE902A426070476A
:105140000000000038B500230024044600BF06E03C
:1051500025680095009D0D60241D091D5B1C934270
:10516000F6D338BD10B504464FF4807040FA04F110
:105170000148FCF77EFE10BD00180240F0EE401A18
:10518000F4EEE01AF1EE10FA02D2B0EE600A7047C7
:10519000F4EEC11AF1EE10FA02DDB0EE410AF6E7C4
:1051A000B0EE610AF3E7000070B504460D46E0B2C8
:1051B0000549088000BF80210348001FFEF7DAFD83
:1051C0000028F8D0204670BD0444004010B50446C5
:1051D00021460248FEF7FDFB10BD00000000014023
:1051E00010B5044621460248FEF7F5FB10BD00004D
:1051F0000000014000B58BB001210846FDF758FDC5
:1052000001211020FDF754FD01210846FDF780FD26
:10521000012208214448FCF707FE01220E214348E1
:10522000FCF702FE4FF48070099002208DF82800F0
:1052300000208DF829008DF82A008DF82B0009A98F
:105240003948FCF7A9FD4FF48040099009A9374877
:10525000FCF7A2FD01210846FDF76AFD00210120AF
:10526000FDF766FD40F2CF700790B320ADF818004F
:105270000020ADF81A00ADF8200006A92C48FEF772
:10528000ADFB6020ADF804000120ADF80600002061
:10529000ADF81000ADF808000820ADF8120040018C
:1052A000ADF814000020ADF816004FF47A700390AA
:1052B00001A91F48FEF7FCFA01A91D48FEF740FBB3
:1052C00008211B48FEF732FB08211948FEF774FB42
:1052D00001211748FEF7E0F901211548FEF7F7F91B
:1052E00001211348FEF7E7F900F026F801212020FC
:1052F000FDF7DEFC4FF48060099000208DF8280057
:105300008DF82A0003208DF8290001208DF82B004C
:1053100009A90848FCF740FD4FF480610548FCF7F7
:10532000A8FD0BB000BD00000000024000100240CC
:10533000000001400014024010B54FF47A71044897
:10534000FEF747FB4FF47A710148FEF744FB10BDAE
:105350000000014010B5044632210B48FBF7C3FAA8
:1053600001231A4621460848FBF71CFB0648FBF7B9
:1053700075FB00BF02210448FBF7E0FA0028F9D0D2
:105380000148FBF7D7FA10BD0020014000487047E4
:10539000300E0220014601F0030000EB8000024ABB
:1053A00002EB400070470000BE0602200048704734
:1053B000CC0B022000487047A80B02200048704721
:1053C000AA06022001461048006800F0010221B13F
:1053D000012910D0022912D106E00B48006800F024
:1053E00001000A4B18700AE007480068C0F340004B
:1053F000064B187003E00220044B187000BF00BF7A
:10540000024800787047000010140240A0000020FD
:1054100000487047B406022000487047A0060220EA
:10542000004870472407022000487047540C0220AF
:1054300010B52DED028B002008EE900A01F05EFC05
:105440001220FFF787FF08EE900AB8EE680ADFED3A
:105450000C0A20EE200AB0EE408A9FED0A0A38EED0
:10546000400ADFED090A80EE201AB3EE090A31EE98
:10547000000AB0EE408AB0EE480ABDEC028B10BDC7
:105480003333533A5C8F423F0AD7233B10B52DED9F
:10549000028B0446012C3BD1494890ED401AF0EEB6
:1054A000410A90ED3F1AB0EE410AB030FDF7D8FA4C
:1054B000434880ED440A90ED441AF0EE410A90ED25
:1054C000431AB0EE410A2030FDF7CAFA3C4880ED9D
:1054D000450A90ED861AF0EE410A90ED851AB0EE7D
:1054E000410A00F5E470FDF7BBFA354880ED8A0A01
:1054F00090ED8A1AF0EE410A90ED891AB0EE410A59
:1055000000F59C70FDF7ACFA2D4880ED8B0A54E055
:10551000022C4FD12A48D0ED400AB0EE600A9FED30
:10552000291ADFED290A00F00DF9B0EE408A24486F
:10553000D0ED3F0AB0EE600A9FED221ADFED220A9D
:1055400000F000F9F0EE408AF0EE480A1C4868309E
:10555000FDF786FA1A4880ED440A90ED441AF0EE01
:10556000410A90ED431AB0EE410A2030FDF778FA77
:10557000134880ED450A90ED861AF0EE410A90ED51
:10558000851AB0EE410A00F5C070FDF769FA0C48C3
:1055900080ED8A0A90ED8A1AF0EE410A90ED891AA0
:1055A000B0EE410A00F59C70FDF75AFA044880ED10
:1055B0008B0A02E0BDEC028B10BD00BFFAE70000D1
:1055C000F0080220DB0F4940DB0F49C010B508B1DD
:1055D00001B103B910BD02F0020414B100241C8013
:1055E000F8E702F0010404B390ED000AD1ED000ADF
:1055F0009FED0F1A01EE600A80ED000A90ED010A9E
:10560000D1ED010A9FED0A1A01EE600A80ED010A50
:1056100090ED020AD1ED020A9FED051A01EE600A33
:1056200080ED020A1C88641C1C8000BFD2E70000C9
:1056300052499D391CB501214020FDF739FB4FF43B
:105640000050009001208DF8040000208DF8060025
:1056500003208DF8050001208DF8070069460348F6
:10566000FCF79AFB00F00EF81CBD00000018024089
:1056700010B54FF400510248FCF7F9FB10BD0000D3
:105680000018024010B54FF400510248FCF7F1FB3E
:1056900010BD0000001802401CB501217020FDF76C
:1056A00007FB4FF48040009001208DF8040000209B
:1056B0008DF8060003208DF8050001208DF8070005
:1056C00069460E48FCF768FB4FF40060009069469D
:1056D0000B48FCF761FBFDF7A1F900F015F800F0AD
:1056E00027F84FF4FF70009069460648FCF754FB1A
:1056F0004FF4FF70FFF736FD1CBD000000140240A0
:10570000001002400018024010B54FF480410248DA
:10571000FCF7AFFB10BD00000014024010B54FF4C1
:1057200080410248FCF7A3FB10BD000000140240BA
:1057300010B54FF400610248FCF79BFB10BD000060
:1057400000100240B4EEE01AF1EE10FA00D27047F9
:10575000B4EEC10AF1EE10FA0EDD31EE602AF0EE81
:10576000421A03E030EE612AB0EE420AB4EEC10AFA
:10577000F1EE10FAF6DC13E0B4EEE00AF1EE10FA06
:105780000ED231EE602AF0EE421A03E030EE212A0A
:10579000B0EE420AB4EEE00AF1EE10FAF6D300BF22
:1057A00000BFD4E7FBF796F96420FFF73FFC01F058
:1057B00017FA01F02BFE03E04FF4FA70FFF736FC06
:1057C000FAE7000010B540210148FCF752FB10BD7C
:1057D0000014024010B540210148FCF748FB10BD01
:1057E000001402401CB501218020FDF761FA3C2025
:1057F000009001208DF8040000208DF806000320A1
:105800008DF8050001208DF8070069460648FCF771
:10581000C3FA002404E0204600F008F8601CC4B27B
:10582000042CF8DB1CBD0000001C024010B504462F
:10583000032C00DD10BD0420A04081B20248FCF71B
:1058400016FB00BFF6E70000001C024010B504463E
:10585000032C00DD10BD0420A04081B20248FCF7FB
:1058600008FB00BFF6E70000001C02402DE9F041F4
:1058700005460E461C4807681C480068001D01F0DC
:1058800089FA50B91948006890F82C100120884016
:1058900017490968814316480160681C38B936B158
:1058A00012480168091D134801F0C6FA1AE07C1974
:1058B0000E4800684460BC4207D20C480168091DCC
:1058C0000D48006801F09EFA0CE008480168091DC7
:1058D0000A48006801F096FA09480068844201D23B
:1058E00007480460BDE8F081380000202400002053
:1058F0003C000020FC0400202C0000202800002098
:105900005400002010B5044601F0A2FA24480068B3
:10591000401C234908602348006840B921480460BE
:105920000846006801280DD100F0E0F90AE01E48A1
:10593000006838B91B480068C06AE16A884201D82B
:105940001848046019480068401C18490860084657
:105950000068606494F82C1001208840144909689C
:10596000084313490860E16A01EB8101114A02EB27
:105970008100211D01F060FA01F094FA0A480068E4
:1059800068B108480068C06AE16A884207D24FF0EF
:10599000805009490860BFF34F8FBFF36F8F10BD70
:1059A000340000202400002040000020500000208F
:1059B0003C0000202C02002004ED00E010B501F0B6
:1059C00047FA10480068D0B90F4801F00BFA0F48A9
:1059D00001F008FA0C480E4908600C480D490860AF
:1059E00000220C210A2001F061FE064908600846E9
:1059F000006820B108A10348006801F0F9FA01F03D
:105A000051FA10BD68000020100500202405002078
:105A10006000002064000020546D725100000000FE
:105A200070B523E001F03CFD1348006808B901207F
:105A300000E00020054602F0DBFABDB901F008FAEB
:105A40000D48C068C468201D01F0A4F90B48006827
:105A5000401E0A4908600A480068401E084908605C
:105A600001F020FA204600F060F800BF044800680A
:105A70000028D7D170BD0000E804002034000020C9
:105A80003000002070B504460D46206C70B1216CCA
:105A9000E0680844E0606168E068884201D32068FB
:105AA000E0602846226CE168FAF702FC70BD2DE93F
:105AB000F04104460F4615464FF00008A66B206CD7
:105AC00040B9206860BB606802F0E2F980460020BF
:105AD000606025E07DB93946226CA068FAF7E8FBE2
